{
  "contractName": "idenity",
  "abi": [
    {
      "constant": true,
      "inputs": [
        {
          "name": "x",
          "type": "uint256"
        },
        {
          "name": "y",
          "type": "uint256"
        }
      ],
      "name": "isPoint",
      "outputs": [
        {
          "name": "",
          "type": "bool"
        }
      ],
      "payable": false,
      "stateMutability": "pure",
      "type": "function"
    },
    {
      "constant": true,
      "inputs": [],
      "name": "validApplicationId",
      "outputs": [
        {
          "name": "",
          "type": "bytes32"
        }
      ],
      "payable": false,
      "stateMutability": "view",
      "type": "function"
    },
    {
      "constant": true,
      "inputs": [
        {
          "name": "",
          "type": "address"
        }
      ],
      "name": "isOwner",
      "outputs": [
        {
          "name": "",
          "type": "bool"
        }
      ],
      "payable": false,
      "stateMutability": "view",
      "type": "function"
    },
    {
      "constant": false,
      "inputs": [
        {
          "name": "e",
          "type": "uint256"
        },
        {
          "name": "v",
          "type": "uint8"
        },
        {
          "name": "r",
          "type": "uint256"
        },
        {
          "name": "s",
          "type": "uint256"
        }
      ],
      "name": "recover",
      "outputs": [
        {
          "name": "",
          "type": "uint256[2]"
        }
      ],
      "payable": false,
      "stateMutability": "nonpayable",
      "type": "function"
    },
    {
      "constant": true,
      "inputs": [],
      "name": "userPresance",
      "outputs": [
        {
          "name": "",
          "type": "bytes1"
        }
      ],
      "payable": false,
      "stateMutability": "view",
      "type": "function"
    },
    {
      "constant": true,
      "inputs": [],
      "name": "counter",
      "outputs": [
        {
          "name": "",
          "type": "bytes4"
        }
      ],
      "payable": false,
      "stateMutability": "view",
      "type": "function"
    },
    {
      "constant": true,
      "inputs": [
        {
          "name": "",
          "type": "address"
        }
      ],
      "name": "timelock",
      "outputs": [
        {
          "name": "",
          "type": "uint256"
        }
      ],
      "payable": false,
      "stateMutability": "view",
      "type": "function"
    },
    {
      "constant": false,
      "inputs": [
        {
          "name": "e",
          "type": "uint256"
        },
        {
          "name": "r",
          "type": "uint256"
        },
        {
          "name": "s",
          "type": "uint256"
        },
        {
          "name": "qx",
          "type": "uint256"
        },
        {
          "name": "qy",
          "type": "uint256"
        }
      ],
      "name": "verify",
      "outputs": [
        {
          "name": "",
          "type": "bool"
        }
      ],
      "payable": false,
      "stateMutability": "nonpayable",
      "type": "function"
    },
    {
      "constant": true,
      "inputs": [],
      "name": "public_qx",
      "outputs": [
        {
          "name": "",
          "type": "uint256"
        }
      ],
      "payable": false,
      "stateMutability": "view",
      "type": "function"
    },
    {
      "constant": true,
      "inputs": [],
      "name": "keyHandle",
      "outputs": [
        {
          "name": "",
          "type": "bytes"
        }
      ],
      "payable": false,
      "stateMutability": "view",
      "type": "function"
    },
    {
      "constant": true,
      "inputs": [],
      "name": "public_qy",
      "outputs": [
        {
          "name": "",
          "type": "uint256"
        }
      ],
      "payable": false,
      "stateMutability": "view",
      "type": "function"
    },
    {
      "inputs": [
        {
          "name": "_public_qx",
          "type": "uint256"
        },
        {
          "name": "_public_qy",
          "type": "uint256"
        },
        {
          "name": "applicationId",
          "type": "bytes32"
        },
        {
          "name": "_counter",
          "type": "bytes4"
        },
        {
          "name": "_keyHandle",
          "type": "bytes"
        }
      ],
      "payable": false,
      "stateMutability": "nonpayable",
      "type": "constructor"
    },
    {
      "constant": false,
      "inputs": [
        {
          "name": "_counter",
          "type": "bytes4"
        },
        {
          "name": "applicationParam",
          "type": "bytes32"
        },
        {
          "name": "r",
          "type": "uint256"
        },
        {
          "name": "s",
          "type": "uint256"
        },
        {
          "name": "fee",
          "type": "uint256"
        },
        {
          "name": "newOwner",
          "type": "address"
        },
        {
          "name": "timestamp",
          "type": "uint256"
        }
      ],
      "name": "hardwareRootAccess",
      "outputs": [],
      "payable": false,
      "stateMutability": "nonpayable",
      "type": "function"
    },
    {
      "constant": false,
      "inputs": [
        {
          "name": "_counter",
          "type": "bytes4"
        },
        {
          "name": "applicationParam",
          "type": "bytes32"
        },
        {
          "name": "r",
          "type": "uint256"
        },
        {
          "name": "s",
          "type": "uint256"
        },
        {
          "name": "fee",
          "type": "uint256"
        },
        {
          "name": "newOwner",
          "type": "address"
        },
        {
          "name": "timestamp",
          "type": "uint256"
        },
        {
          "name": "fufiller",
          "type": "address"
        },
        {
          "name": "lockExpire",
          "type": "uint256"
        }
      ],
      "name": "hardwareRootAccess",
      "outputs": [],
      "payable": false,
      "stateMutability": "nonpayable",
      "type": "function"
    },
    {
      "constant": false,
      "inputs": [
        {
          "name": "_to",
          "type": "address"
        },
        {
          "name": "_value",
          "type": "uint256"
        },
        {
          "name": "_calldata",
          "type": "bytes"
        },
        {
          "name": "fee",
          "type": "uint256"
        },
        {
          "name": "_counter",
          "type": "bytes4"
        },
        {
          "name": "applicationParam",
          "type": "bytes32"
        },
        {
          "name": "r",
          "type": "uint256"
        },
        {
          "name": "s",
          "type": "uint256"
        },
        {
          "name": "fufiller",
          "type": "address"
        },
        {
          "name": "lockExpire",
          "type": "uint256"
        }
      ],
      "name": "oneTimeCall",
      "outputs": [
        {
          "name": "",
          "type": "bool"
        }
      ],
      "payable": false,
      "stateMutability": "nonpayable",
      "type": "function"
    },
    {
      "constant": false,
      "inputs": [
        {
          "name": "_to",
          "type": "address"
        },
        {
          "name": "_value",
          "type": "uint256"
        },
        {
          "name": "_calldata",
          "type": "bytes"
        },
        {
          "name": "fee",
          "type": "uint256"
        },
        {
          "name": "_counter",
          "type": "bytes4"
        },
        {
          "name": "applicationParam",
          "type": "bytes32"
        },
        {
          "name": "r",
          "type": "uint256"
        },
        {
          "name": "s",
          "type": "uint256"
        }
      ],
      "name": "oneTimeCall",
      "outputs": [
        {
          "name": "",
          "type": "bool"
        }
      ],
      "payable": false,
      "stateMutability": "nonpayable",
      "type": "function"
    },
    {
      "constant": false,
      "inputs": [
        {
          "name": "_to",
          "type": "address"
        },
        {
          "name": "_value",
          "type": "uint256"
        },
        {
          "name": "_calldata",
          "type": "bytes"
        },
        {
          "name": "salt",
          "type": "bytes32"
        },
        {
          "name": "fee",
          "type": "uint256"
        },
        {
          "name": "signature",
          "type": "bytes"
        },
        {
          "name": "fufiller",
          "type": "address"
        },
        {
          "name": "lockExpire",
          "type": "uint256"
        }
      ],
      "name": "forward",
      "outputs": [
        {
          "name": "",
          "type": "bool"
        }
      ],
      "payable": true,
      "stateMutability": "payable",
      "type": "function"
    },
    {
      "constant": false,
      "inputs": [
        {
          "name": "_to",
          "type": "address"
        },
        {
          "name": "_value",
          "type": "uint256"
        },
        {
          "name": "_calldata",
          "type": "bytes"
        },
        {
          "name": "salt",
          "type": "bytes32"
        },
        {
          "name": "fee",
          "type": "uint256"
        },
        {
          "name": "signature",
          "type": "bytes"
        }
      ],
      "name": "forward",
      "outputs": [
        {
          "name": "",
          "type": "bool"
        }
      ],
      "payable": true,
      "stateMutability": "payable",
      "type": "function"
    },
    {
      "constant": false,
      "inputs": [
        {
          "name": "_to",
          "type": "address"
        },
        {
          "name": "_value",
          "type": "uint256"
        },
        {
          "name": "_calldata",
          "type": "bytes"
        }
      ],
      "name": "forward",
      "outputs": [
        {
          "name": "",
          "type": "bool"
        }
      ],
      "payable": true,
      "stateMutability": "payable",
      "type": "function"
    },
    {
      "constant": false,
      "inputs": [
        {
          "name": "_add",
          "type": "address"
        },
        {
          "name": "timestamp",
          "type": "uint256"
        },
        {
          "name": "salt",
          "type": "bytes32"
        },
        {
          "name": "fee",
          "type": "uint256"
        },
        {
          "name": "signature",
          "type": "bytes"
        },
        {
          "name": "fufiller",
          "type": "address"
        },
        {
          "name": "lockExpire",
          "type": "uint256"
        }
      ],
      "name": "addAccount",
      "outputs": [],
      "payable": false,
      "stateMutability": "nonpayable",
      "type": "function"
    },
    {
      "constant": false,
      "inputs": [
        {
          "name": "_add",
          "type": "address"
        },
        {
          "name": "timestamp",
          "type": "uint256"
        },
        {
          "name": "salt",
          "type": "bytes32"
        },
        {
          "name": "fee",
          "type": "uint256"
        },
        {
          "name": "signature",
          "type": "bytes"
        }
      ],
      "name": "addAccount",
      "outputs": [],
      "payable": false,
      "stateMutability": "nonpayable",
      "type": "function"
    },
    {
      "constant": false,
      "inputs": [
        {
          "name": "_add",
          "type": "address"
        },
        {
          "name": "timestamp",
          "type": "uint256"
        }
      ],
      "name": "addAccount",
      "outputs": [],
      "payable": false,
      "stateMutability": "nonpayable",
      "type": "function"
    },
    {
      "constant": false,
      "inputs": [
        {
          "name": "_remove",
          "type": "address"
        },
        {
          "name": "salt",
          "type": "bytes32"
        },
        {
          "name": "fee",
          "type": "uint256"
        },
        {
          "name": "signature",
          "type": "bytes"
        }
      ],
      "name": "removeAccount",
      "outputs": [],
      "payable": false,
      "stateMutability": "nonpayable",
      "type": "function"
    },
    {
      "constant": false,
      "inputs": [
        {
          "name": "_remove",
          "type": "address"
        }
      ],
      "name": "removeAccount",
      "outputs": [],
      "payable": false,
      "stateMutability": "nonpayable",
      "type": "function"
    },
    {
      "constant": false,
      "inputs": [
        {
          "name": "_remove",
          "type": "address"
        },
        {
          "name": "salt",
          "type": "bytes32"
        },
        {
          "name": "fee",
          "type": "uint256"
        },
        {
          "name": "signature",
          "type": "bytes"
        },
        {
          "name": "fufiller",
          "type": "address"
        },
        {
          "name": "lockExpire",
          "type": "uint256"
        }
      ],
      "name": "removeAccount",
      "outputs": [],
      "payable": false,
      "stateMutability": "nonpayable",
      "type": "function"
    },
    {
      "constant": true,
      "inputs": [
        {
          "name": "_owner",
          "type": "address"
        }
      ],
      "name": "checkAddress",
      "outputs": [],
      "payable": false,
      "stateMutability": "view",
      "type": "function"
    }
  ],
  "bytecode": "0x60806040523480156200001157600080fd5b506040516200413238038062004132833981018060405260a08110156200003757600080fd5b8151602083015160408401516060850151608086018051949693959294919392830192916401000000008111156200006e57600080fd5b820160208101848111156200008257600080fd5b81516401000000008111828201871017156200009d57600080fd5b50506001889055600287905560038690556004805463ffffffff19167c010000000000000000000000000000000000000000000000000000000087041790558051909350620000f692506006915060208401906200011d565b5050336000908152602081905260409020805460ff1916600117905550620001c292505050565b828054600181600116156101000203166002900490600052602060002090601f016020900481019282601f106200016057805160ff191683800117855562000190565b8280016001018555821562000190579182015b828111156200019057825182559160200191906001019062000173565b506200019e929150620001a2565b5090565b620001bf91905b808211156200019e5760008155600101620001a9565b90565b613f6080620001d26000396000f3fe6080604052600436106101b3576000357c0100000000000000000000000000000000000000000000000000000000900480636e018f61116100fe578063bd0feb36116100a7578063d73b227a11610081578063d73b227a14610cac578063d7f31eb914610d6e578063d9c3d96c14610e36578063f9c61ef514610ec0576101b3565b8063bd0feb3614610c11578063c1ce56eb14610c26578063c4740a9514610c6c576101b3565b80638095bf6c116100d85780638095bf6c146109ce5780638554d92c14610b29578063ad6bb6be14610b6b576101b3565b80636e018f61146107b357806376b5db011461088d578063808ecbe914610923576101b3565b80634be967841161016057806361bc221a1161013a57806361bc221a14610662578063642ae8e6146106ac5780636b143bb814610773576101b3565b80634be96784146103a55780634ebfa54a146103ef5780635d4bd3f4146104eb576101b3565b80631760e0b9116101915780631760e0b9146102c45780632f54bf6e146102eb5780634828f4a21461032b576101b3565b806304b3f317146101b85780630ddcfe8e146102405780631340d09a14610280575b600080fd5b3480156101c457600080fd5b5061023e600480360360e08110156101db57600080fd5b507fffffffff000000000000000000000000000000000000000000000000000000008135169060208101359060408101359060608101359060808101359073ffffffffffffffffffffffffffffffffffffffff60a0820135169060c00135610ed5565b005b34801561024c57600080fd5b5061023e6004803603602081101561026357600080fd5b503573ffffffffffffffffffffffffffffffffffffffff166111d1565b34801561028c57600080fd5b506102b0600480360360408110156102a357600080fd5b50803590602001356111e8565b604080519115158252519081900360200190f35b3480156102d057600080fd5b506102d9611221565b60408051918252519081900360200190f35b3480156102f757600080fd5b506102b06004803603602081101561030e57600080fd5b503573ffffffffffffffffffffffffffffffffffffffff16611227565b34801561033757600080fd5b5061036a6004803603608081101561034e57600080fd5b5080359060ff602082013516906040810135906060013561123c565b6040518082600260200280838360005b8381101561039257818101518382015260200161037a565b5050505090500191505060405180910390f35b3480156103b157600080fd5b506103ba61134c565b604080517fff000000000000000000000000000000000000000000000000000000000000009092168252519081900360200190f35b3480156103fb57600080fd5b506102b0600480360361014081101561041357600080fd5b73ffffffffffffffffffffffffffffffffffffffff8235169160208101359181019060608101604082013564010000000081111561045057600080fd5b82018360208201111561046257600080fd5b8035906020019184600183028401116401000000008311171561048457600080fd5b91935091508035907fffffffff000000000000000000000000000000000000000000000000000000006020820135169060408101359060608101359060808101359073ffffffffffffffffffffffffffffffffffffffff60a0820135169060c00135611370565b6102b0600480360361010081101561050257600080fd5b73ffffffffffffffffffffffffffffffffffffffff8235169160208101359181019060608101604082013564010000000081111561053f57600080fd5b82018360208201111561055157600080fd5b8035906020019184600183028401116401000000008311171561057357600080fd5b91908080601f01602080910402602001604051908101604052809392919081815260200183838082843760009201919091525092958435956020860135959194509250606081019150604001356401000000008111156105d257600080fd5b8201836020820111156105e457600080fd5b8035906020019184600183028401116401000000008311171561060657600080fd5b91908080601f0160208091040260200160405190810160405280939291908181526020018383808284376000920191909152509295505073ffffffffffffffffffffffffffffffffffffffff8335169350505060200135611584565b34801561066e57600080fd5b5061067761193d565b604080517fffffffff000000000000000000000000000000000000000000000000000000009092168252519081900360200190f35b3480156106b857600080fd5b5061023e600480360360e08110156106cf57600080fd5b73ffffffffffffffffffffffffffffffffffffffff8235169160208101359160408201359160608101359181019060a08101608082013564010000000081111561071857600080fd5b82018360208201111561072a57600080fd5b8035906020019184600183028401116401000000008311171561074c57600080fd5b919350915073ffffffffffffffffffffffffffffffffffffffff8135169060200135611962565b34801561077f57600080fd5b506102d96004803603602081101561079657600080fd5b503573ffffffffffffffffffffffffffffffffffffffff16611b8b565b3480156107bf57600080fd5b506102b060048036036101008110156107d757600080fd5b73ffffffffffffffffffffffffffffffffffffffff8235169160208101359181019060608101604082013564010000000081111561081457600080fd5b82018360208201111561082657600080fd5b8035906020019184600183028401116401000000008311171561084857600080fd5b91935091508035907fffffffff000000000000000000000000000000000000000000000000000000006020820135169060408101359060608101359060800135611b9d565b34801561089957600080fd5b5061023e60048036036101208110156108b157600080fd5b507fffffffff000000000000000000000000000000000000000000000000000000008135169060208101359060408101359060608101359060808101359073ffffffffffffffffffffffffffffffffffffffff60a082013581169160c08101359160e082013516906101000135611f48565b34801561092f57600080fd5b5061023e600480360360a081101561094657600080fd5b73ffffffffffffffffffffffffffffffffffffffff8235169160208101359160408201359160608101359181019060a08101608082013564010000000081111561098f57600080fd5b8201836020820111156109a157600080fd5b803590602001918460018302840111640100000000831117156109c357600080fd5b509092509050612278565b6102b0600480360360c08110156109e457600080fd5b73ffffffffffffffffffffffffffffffffffffffff82351691602081013591810190606081016040820135640100000000811115610a2157600080fd5b820183602082011115610a3357600080fd5b80359060200191846001830284011164010000000083111715610a5557600080fd5b91908080601f0160208091040260200160405190810160405280939291908181526020018383808284376000920191909152509295843595602086013595919450925060608101915060400135640100000000811115610ab457600080fd5b820183602082011115610ac657600080fd5b80359060200191846001830284011164010000000083111715610ae857600080fd5b91908080601f016020809104026020016040519081016040528093929190818152602001838380828437600092019190915250929550612453945050505050565b348015610b3557600080fd5b506102b0600480360360a0811015610b4c57600080fd5b5080359060208101359060408101359060608101359060800135612790565b348015610b7757600080fd5b5061023e60048036036080811015610b8e57600080fd5b73ffffffffffffffffffffffffffffffffffffffff8235169160208101359160408201359190810190608081016060820135640100000000811115610bd257600080fd5b820183602082011115610be457600080fd5b80359060200191846001830284011164010000000083111715610c0657600080fd5b5090925090506128a3565b348015610c1d57600080fd5b506102d9612a74565b348015610c3257600080fd5b5061023e60048036036040811015610c4957600080fd5b5073ffffffffffffffffffffffffffffffffffffffff8135169060200135612a7a565b348015610c7857600080fd5b5061023e60048036036020811015610c8f57600080fd5b503573ffffffffffffffffffffffffffffffffffffffff16612aea565b348015610cb857600080fd5b5061023e600480360360c0811015610ccf57600080fd5b73ffffffffffffffffffffffffffffffffffffffff8235169160208101359160408201359190810190608081016060820135640100000000811115610d1357600080fd5b820183602082011115610d2557600080fd5b80359060200191846001830284011164010000000083111715610d4757600080fd5b919350915073ffffffffffffffffffffffffffffffffffffffff8135169060200135612b4a565b6102b060048036036060811015610d8457600080fd5b73ffffffffffffffffffffffffffffffffffffffff82351691602081013591810190606081016040820135640100000000811115610dc157600080fd5b820183602082011115610dd357600080fd5b80359060200191846001830284011164010000000083111715610df557600080fd5b91908080601f016020809104026020016040519081016040528093929190818152602001838380828437600092019190915250929550612d5d945050505050565b348015610e4257600080fd5b50610e4b612e5a565b6040805160208082528351818301528351919283929083019185019080838360005b83811015610e85578181015183820152602001610e6d565b50505050905090810190601f168015610eb25780820380516001836020036101000a031916815260200191505b509250505060405180910390f35b348015610ecc57600080fd5b506102d9612f06565b60045463ffffffff7c010000000000000000000000000000000000000000000000000000000091820282900481169189041611610f1157600080fd5b6003548614610f1f57600080fd5b604080517f6e65770000000000000000000000000000000000000000000000000000000000602080830191909152825180830360030181526023830184528051908201206c0100000000000000000000000030810260438501527fffffffff00000000000000000000000000000000000000000000000000000000909116605784015273ffffffffffffffffffffffffffffffffffffffff861602605b830152606f8201849052608f8083018790528351808403909101815260af90920190925280519101206002611013887f01000000000000000000000000000000000000000000000000000000000000008b85612f0c565b6040518082805190602001908083835b6020831061106057805182527fffffffffffffffffffffffffffffffffffffffffffffffffffffffffffffffe09092019160209182019101611023565b51815160209384036101000a7fffffffffffffffffffffffffffffffffffffffffffffffffffffffffffffffff01801990921691161790526040519190930194509192505080830381855afa1580156110bd573d6000803e3d6000fd5b5050506040513d60208110156110d257600080fd5b50516001546002549192506110ed9183918991899190612790565b15156110f857600080fd5b73ffffffffffffffffffffffffffffffffffffffff831660009081526020818152604080832080547fffffffffffffffffffffffffffffffffffffffffffffffffffffffffffffff00166001179055600480547c01000000000000000000000000000000000000000000000000000000008d047fffffffffffffffffffffffffffffffffffffffffffffffffffffffff00000000909116179055600590915280822084905551339186156108fc02918791818181858888f193505050501580156111c6573d6000803e3d6000fd5b505050505050505050565b6111da81612f28565b15156111e557600080fd5b50565b60006111f383612fb0565b7fffffffff00000001000000000000000000000000ffffffffffffffffffffffff8384091490505b92915050565b60035481565b60006020819052908152604090205460ff1681565b611244613efa565b6000857fffffffff00000000ffffffffffffffffbce6faada7179e84f3b9cac2fc6325510390506000611297857fffffffff00000000ffffffffffffffffbce6faada7179e84f3b9cac2fc632551613068565b905060007fffffffff00000000ffffffffffffffffbce6faada7179e84f3b9cac2fc632551858309905060007fffffffff00000000ffffffffffffffffbce6faada7179e84f3b9cac2fc632551848409905060006112f5888a61307f565b9050600080600061130885878d876130f3565b925092509250611316613f15565b50604080516060810182528481526020810184905290810182905261133a8161391f565b9e9d5050505050505050505050505050565b7f010000000000000000000000000000000000000000000000000000000000000081565b60003373ffffffffffffffffffffffffffffffffffffffff8416148061139557508142115b15156113a057600080fd5b60045463ffffffff7c0100000000000000000000000000000000000000000000000000000000918202829004811691890416116113dc57600080fd5b600480547fffffffffffffffffffffffffffffffffffffffffffffffffffffffff00000000167c01000000000000000000000000000000000000000000000000000000008904179055600354861461143357600080fd5b61147c83838d8f8c8f8f8080601f0160208091040260200160405190810160405280939291908181526020018383808284376000920191909152508e92508d91508f90506139e6565b156101b357600480547fffffffffffffffffffffffffffffffffffffffffffffffffffffffff00000000167c0100000000000000000000000000000000000000000000000000000000890417905560405160009073ffffffffffffffffffffffffffffffffffffffff8e16908d908d908d90808383808284376040519201945060009350909150508083038185875af1925050503d806000811461153c576040519150601f19603f3d011682016040523d82523d6000602084013e611541565b606091505b505060405190915033908a156108fc02908b906000818181858888f19350505050158015611573573d6000803e3d6000fd5b509c9b505050505050505050505050565b60003373ffffffffffffffffffffffffffffffffffffffff841614806115a957508142115b15156115b457600080fd5b6000308660405160200180807f6c6f636b65645f63616c6c000000000000000000000000000000000000000000815250600b019050604051602081830303815290604052805190602001208987878f8f8f604051602001808a73ffffffffffffffffffffffffffffffffffffffff1673ffffffffffffffffffffffffffffffffffffffff166c01000000000000000000000000028152601401898152602001887bffffffffffffffffffffffffffffffffffffffffffffffffffffffff19167bffffffffffffffffffffffffffffffffffffffffffffffffffffffff191681526004018781526020018673ffffffffffffffffffffffffffffffffffffffff1673ffffffffffffffffffffffffffffffffffffffff166c010000000000000000000000000281526014018581526020018473ffffffffffffffffffffffffffffffffffffffff1673ffffffffffffffffffffffffffffffffffffffff166c0100000000000000000000000002815260140183815260200182805190602001908083835b6020831061177457805182527fffffffffffffffffffffffffffffffffffffffffffffffffffffffffffffffe09092019160209182019101611737565b6001836020036101000a038019825116818451168082178552505050505050905001995050505050505050505060405160208183030381529060405280519060200120905060006117c58287613d29565b90506117d081612f28565b15156117db57600080fd5b60008281526007602052604090205460ff16156117f757600080fd5b60008b73ffffffffffffffffffffffffffffffffffffffff168b8b6040518082805190602001908083835b6020831061185f57805182527fffffffffffffffffffffffffffffffffffffffffffffffffffffffffffffffe09092019160209182019101611822565b6001836020036101000a03801982511681845116808217855250505050505090500191505060006040518083038185875af1925050503d80600081146118c1576040519150601f19603f3d011682016040523d82523d6000602084013e6118c6565b606091505b505060008481526007602052604080822080547fffffffffffffffffffffffffffffffffffffffffffffffffffffffffffffff001660011790555191925033918a156108fc02918b9190818181858888f1935050505015801561192d573d6000803e3d6000fd5b509b9a5050505050505050505050565b6004547c01000000000000000000000000000000000000000000000000000000000281565b3373ffffffffffffffffffffffffffffffffffffffff8316148061198557508042115b151561199057600080fd5b604080517f6c6f636b65645f616464000000000000000000000000000000000000000000006020808301919091528251808303600a018152602a830184528051908201206c01000000000000000000000000308102604a850152605e84018a90527fffffffff00000000000000000000000000000000000000000000000000000000909116607e840152608283018a905273ffffffffffffffffffffffffffffffffffffffff808716820260a285015260b684018690528c160260d683015260ea8083018b90528351808403909101815261010a830180855281519183019190912061012a601f890184900490930284018301909452868152600092611ab2928592918a918a91829101838280828437600092019190915250613d2992505050565b9050611abd81612f28565b1515611ac857600080fd5b60008281526007602052604090205460ff1615611ae457600080fd5b73ffffffffffffffffffffffffffffffffffffffff8a16600090815260208181526040808320805460017fffffffffffffffffffffffffffffffffffffffffffffffffffffffffffffff009182168117909255600584528285208e905586855260079093528184208054909316179091555133916108fc8a1502918a91818181858888f19350505050158015611b7e573d6000803e3d6000fd5b5050505050505050505050565b60056020526000908152604090205481565b60045460009063ffffffff7c010000000000000000000000000000000000000000000000000000000091820282900481169187041611611bdc57600080fd5b6003548414611bea57600080fd5b60003060405160200180807f6f6e6574696d65000000000000000000000000000000000000000000000000008152506007019050604051602081830303815290604052805190602001208b8d8a8d8d604051602001808873ffffffffffffffffffffffffffffffffffffffff1673ffffffffffffffffffffffffffffffffffffffff166c01000000000000000000000000028152601401877bffffffffffffffffffffffffffffffffffffffffffffffffffffffff19167bffffffffffffffffffffffffffffffffffffffffffffffffffffffff191681526004018681526020018573ffffffffffffffffffffffffffffffffffffffff1673ffffffffffffffffffffffffffffffffffffffff166c01000000000000000000000000028152601401848152602001838380828437808301925050509750505050505050506040516020818303038152906040528051906020012090506002611d718660017f0100000000000000000000000000000000000000000000000000000000000000028985612f0c565b6040518082805190602001908083835b60208310611dbe57805182527fffffffffffffffffffffffffffffffffffffffffffffffffffffffffffffffe09092019160209182019101611d81565b51815160209384036101000a7fffffffffffffffffffffffffffffffffffffffffffffffffffffffffffffffff01801990921691161790526040519190930194509192505080830381855afa158015611e1b573d6000803e3d6000fd5b5050506040513d6020811015611e3057600080fd5b5051600154600254919250611e4b9183918791879190612790565b1515611e5657600080fd5b600480547fffffffffffffffffffffffffffffffffffffffffffffffffffffffff00000000167c0100000000000000000000000000000000000000000000000000000000880417905560405160009073ffffffffffffffffffffffffffffffffffffffff8d16908c908c908c90808383808284376040519201945060009350909150508083038185875af1925050503d8060008114611f11576040519150601f19603f3d011682016040523d82523d6000602084013e611f16565b606091505b5050604051909150339089156108fc02908a906000818181858888f1935050505015801561192d573d6000803e3d6000fd5b3373ffffffffffffffffffffffffffffffffffffffff83161480611f6b57508042115b1515611f7657600080fd5b60045463ffffffff7c01000000000000000000000000000000000000000000000000000000009182028290048116918b041611611fb257600080fd5b6003548814611fc057600080fd5b604080517f6c6f636b65645f6e6577000000000000000000000000000000000000000000006020808301919091528251808303600a018152602a830184528051908201206c01000000000000000000000000308102604a8501527fffffffff00000000000000000000000000000000000000000000000000000000909116605e84015273ffffffffffffffffffffffffffffffffffffffff8087168202606285015260768401869052881602609683015260aa820186905260ca8083018990528351808403909101815260ea909201909252805191012060026120c58a7f01000000000000000000000000000000000000000000000000000000000000008d85612f0c565b6040518082805190602001908083835b6020831061211257805182527fffffffffffffffffffffffffffffffffffffffffffffffffffffffffffffffe090920191602091820191016120d5565b51815160209384036101000a7fffffffffffffffffffffffffffffffffffffffffffffffffffffffffffffffff01801990921691161790526040519190930194509192505080830381855afa15801561216f573d6000803e3d6000fd5b5050506040513d602081101561218457600080fd5b505160015460025491925061219f9183918b918b9190612790565b15156121aa57600080fd5b73ffffffffffffffffffffffffffffffffffffffff851660009081526020818152604080832080547fffffffffffffffffffffffffffffffffffffffffffffffffffffffffffffff00166001179055600480547c01000000000000000000000000000000000000000000000000000000008f047fffffffffffffffffffffffffffffffffffffffffffffffffffffffff00000000909116179055600590915280822086905551339188156108fc02918991818181858888f19350505050158015611b7e573d6000803e3d6000fd5b604080517f6164640000000000000000000000000000000000000000000000000000000000602080830191909152825180830360030181526023830184528051908201206c010000000000000000000000003081026043850152605784018890527fffffffff000000000000000000000000000000000000000000000000000000009091166077840152607b830188905273ffffffffffffffffffffffffffffffffffffffff8a1602609b83015260af8083018990528351808403909101815260cf830180855281519183019190912060ef601f8701849004909302840183019094528481526000926123879285929188918891829101838280828437600092019190915250613d2992505050565b905061239281612f28565b151561239d57600080fd5b60008281526007602052604090205460ff16156123b957600080fd5b73ffffffffffffffffffffffffffffffffffffffff8816600090815260208181526040808320805460017fffffffffffffffffffffffffffffffffffffffffffffffffffffffffffffff009182168117909255600584528285208c905586855260079093528184208054909316179091555133916108fc881502918891818181858888f193505050501580156111c6573d6000803e3d6000fd5b600080308460405160200180807f63616c6c00000000000000000000000000000000000000000000000000000000815250600401905060405160208183030381529060405280519060200120878a8c8b604051602001808873ffffffffffffffffffffffffffffffffffffffff1673ffffffffffffffffffffffffffffffffffffffff166c01000000000000000000000000028152601401878152602001867bffffffffffffffffffffffffffffffffffffffffffffffffffffffff19167bffffffffffffffffffffffffffffffffffffffffffffffffffffffff191681526004018581526020018481526020018373ffffffffffffffffffffffffffffffffffffffff1673ffffffffffffffffffffffffffffffffffffffff166c0100000000000000000000000002815260140182805190602001908083835b602083106125cb57805182527fffffffffffffffffffffffffffffffffffffffffffffffffffffffffffffffe0909201916020918201910161258e565b6001836020036101000a038019825116818451168082178552505050505050905001975050505050505050604051602081830303815290604052805190602001209050600061261a8285613d29565b905061262581612f28565b151561263057600080fd5b60008281526007602052604090205460ff161561264c57600080fd5b60008973ffffffffffffffffffffffffffffffffffffffff1689896040518082805190602001908083835b602083106126b457805182527fffffffffffffffffffffffffffffffffffffffffffffffffffffffffffffffe09092019160209182019101612677565b6001836020036101000a03801982511681845116808217855250505050505090500191505060006040518083038185875af1925050503d8060008114612716576040519150601f19603f3d011682016040523d82523d6000602084013e61271b565b606091505b505060008481526007602052604080822080547fffffffffffffffffffffffffffffffffffffffffffffffffffffffffffffff0016600117905551919250339188156108fc0291899190818181858888f19350505050158015612782573d6000803e3d6000fd5b509998505050505050505050565b6000806127bd857fffffffff00000000ffffffffffffffffbce6faada7179e84f3b9cac2fc632551613068565b9050600080806128157fffffffff00000000ffffffffffffffffbce6faada7179e84f3b9cac2fc632551858c097fffffffff00000000ffffffffffffffffbce6faada7179e84f3b9cac2fc632551868c0989896130f3565b919450925090506000612869827fffffffff00000001000000000000000000000000fffffffffffffffffffffffc7fffffffff00000001000000000000000000000000ffffffffffffffffffffffff613eba565b905060007fffffffff00000001000000000000000000000000ffffffffffffffffffffffff828609909a149b9a5050505050505050505050565b604080517f72656d6f76650000000000000000000000000000000000000000000000000000602080830191909152825180830360060181526026830184528051908201206c010000000000000000000000003081026046850152605a84018890527fffffffff00000000000000000000000000000000000000000000000000000000909116607a840152607e830188905273ffffffffffffffffffffffffffffffffffffffff891602609e8301528251609281840301815260b2830180855281519183019190912060d2601f8701849004909302840183019094528481526000926129aa9285929188918891829101838280828437600092019190915250613d2992505050565b90506129b581612f28565b15156129c057600080fd5b60008281526007602052604090205460ff16156129dc57600080fd5b73ffffffffffffffffffffffffffffffffffffffff871660009081526020818152604080832080547fffffffffffffffffffffffffffffffffffffffffffffffffffffffffffffff009081169091558584526007909252808320805490921660011790915551339187156108fc02918891818181858888f19350505050158015612a6a573d6000803e3d6000fd5b5050505050505050565b60015481565b612a8333612f28565b1515612a8e57600080fd5b73ffffffffffffffffffffffffffffffffffffffff9091166000908152600560209081526040808320939093558190522080547fffffffffffffffffffffffffffffffffffffffffffffffffffffffffffffff00166001179055565b612af333612f28565b1515612afe57600080fd5b73ffffffffffffffffffffffffffffffffffffffff16600090815260208190526040902080547fffffffffffffffffffffffffffffffffffffffffffffffffffffffffffffff00169055565b3373ffffffffffffffffffffffffffffffffffffffff83161480612b6d57508042115b1515612b7857600080fd5b604080517f6c6f636b65645f72656d6f7665000000000000000000000000000000000000006020808301919091528251808303600d018152602d830184528051908201206c01000000000000000000000000308102604d850152606184018a90527fffffffff00000000000000000000000000000000000000000000000000000000909116608184015273ffffffffffffffffffffffffffffffffffffffff808716820260858501526099840186905260b984018b90528b160260d9830152825160cd81840301815260ed830180855281519183019190912061010d601f890184900490930284018301909452868152600092612c91928592918a918a91829101838280828437600092019190915250613d2992505050565b9050612c9c81612f28565b1515612ca757600080fd5b60008281526007602052604090205460ff1615612cc357600080fd5b73ffffffffffffffffffffffffffffffffffffffff891660009081526020818152604080832080547fffffffffffffffffffffffffffffffffffffffffffffffffffffffffffffff009081169091558584526007909252808320805490921660011790915551339189156108fc02918a91818181858888f19350505050158015612d51573d6000803e3d6000fd5b50505050505050505050565b6000612d6833612f28565b1515612d7357600080fd5b60008473ffffffffffffffffffffffffffffffffffffffff1684846040518082805190602001908083835b60208310612ddb57805182527fffffffffffffffffffffffffffffffffffffffffffffffffffffffffffffffe09092019160209182019101612d9e565b6001836020036101000a03801982511681845116808217855250505050505090500191505060006040518083038185875af1925050503d8060008114612e3d576040519150601f19603f3d011682016040523d82523d6000602084013e612e42565b606091505b50509050801515612e5257600080fd5b509392505050565b6006805460408051602060026001851615610100027fffffffffffffffffffffffffffffffffffffffffffffffffffffffffffffffff0190941693909304601f81018490048402820184019092528181529291830182828015612efe5780601f10612ed357610100808354040283529160200191612efe565b820191906000526020600020905b815481529060010190602001808311612ee157829003601f168201915b505050505081565b60025481565b6045606090815260809490945260a09290925260a15260a55290565b73ffffffffffffffffffffffffffffffffffffffff811660009081526020819052604081205460ff16801561121b575073ffffffffffffffffffffffffffffffffffffffff821660009081526005602052604090205442108061121b57505073ffffffffffffffffffffffffffffffffffffffff166000908152600560205260409020541590565b60007fffffffff00000001000000000000000000000000ffffffffffffffffffffffff807f5ac635d8aa3a93e7b3ebbd55769886bc651d06b0cc53b0f63bce3c3e27d2604b7fffffffff00000001000000000000000000000000ffffffffffffffffffffffff857fffffffff00000001000000000000000000000000fffffffffffffffffffffffc09087fffffffff00000001000000000000000000000000ffffffffffffffffffffffff8085860985090892915050565b6000613078836002840384613eba565b9392505050565b6000806130d561308e85612fb0565b7f3fffffffc00000004000000000000000000000004000000000000000000000007fffffffff00000001000000000000000000000000ffffffffffffffffffffffff613eba565b905060ff8316156130e957806000036130eb565b805b949350505050565b60008060006131486001858760017f4fe342e2fe1a7f9b8ee7eb4a7c0f9e162bce33576b315ececbb6406837bf51f57f6b17d1f2e12c4247f8bce6e563a440f277037d812deb33a0f4a13945d898c2966132e2565b7f80000000000000000000000000000000000000000000000000000000000000008a8a175b80821615156131815760028204915061316d565b508a811615156001811461319e5789975088965060019550613206565b8a82161515600181146131fa577f6b17d1f2e12c4247f8bce6e563a440f277037d812deb33a0f4a13945d898c29698507f4fe342e2fe1a7f9b8ee7eb4a7c0f9e162bce33576b315ececbb6406837bf51f5975060019650613204565b8598508497508396505b505b50600290045b80156132dd5761321d85878961369d565b9650965096506000818c16141560018114613255578a8216156132505761324986888a60018d8f6132e2565b9750975097505b6132d3565b8a82161515600181146132bc576132b187898b60017f4fe342e2fe1a7f9b8ee7eb4a7c0f9e162bce33576b315ececbb6406837bf51f57f6b17d1f2e12c4247f8bce6e563a440f277037d812deb33a0f4a13945d898c2966132e2565b9850985098506132d1565b6132ca87898b87898b6132e2565b9850985098505b505b506002900461320c565b613698565b60008060008060007fffffffff00000001000000000000000000000000ffffffffffffffffffffffff8b8c097fffffffff00000001000000000000000000000000ffffffffffffffffffffffff81880991507fffffffff00000001000000000000000000000000ffffffffffffffffffffffff808d830989097fffffffff00000001000000000000000000000000ffffffffffffffffffffffff8a8b0991507fffffffff00000001000000000000000000000000ffffffffffffffffffffffff828c0993507fffffffff00000001000000000000000000000000ffffffffffffffffffffffff808b84098d0984841460018114613626577fffffffff00000001000000000000000000000000ffffffffffffffffffffffff857fffffffff00000001000000000000000000000000ffffffffffffffffffffffff03870895507fffffffff00000001000000000000000000000000ffffffffffffffffffffffff86870993507fffffffff00000001000000000000000000000000ffffffffffffffffffffffff8486097fffffffff00000001000000000000000000000000ffffffffffffffffffffffff85880994507fffffffff00000001000000000000000000000000ffffffffffffffffffffffff847fffffffff00000001000000000000000000000000ffffffffffffffffffffffff03840892507fffffffff00000001000000000000000000000000ffffffffffffffffffffffff80826002097fffffffff00000001000000000000000000000000ffffffffffffffffffffffff037fffffffff00000001000000000000000000000000ffffffffffffffffffffffff877fffffffff00000001000000000000000000000000ffffffffffffffffffffffff037fffffffff00000001000000000000000000000000ffffffffffffffffffffffff878809080899507fffffffff00000001000000000000000000000000ffffffffffffffffffffffff808686097fffffffff00000001000000000000000000000000ffffffffffffffffffffffff037fffffffff00000001000000000000000000000000ffffffffffffffffffffffff808d7fffffffff00000001000000000000000000000000ffffffffffffffffffffffff038508860908985050613654565b82821461363a576001985060019750600096505b818314156136545761364d8c8c8c61369d565b9850985098505b505050818314905061368a577fffffffff00000001000000000000000000000000ffffffffffffffffffffffff808c8a09830992505b505096509650969350505050565b613911565b600080808415156136b357506001915081905060005b7fffffffff00000001000000000000000000000000ffffffffffffffffffffffff8687097fffffffff00000001000000000000000000000000ffffffffffffffffffffffff807fffffffff00000001000000000000000000000000ffffffffffffffffffffffff8788096003097fffffffff00000001000000000000000000000000ffffffffffffffffffffffff808485097fffffffff00000001000000000000000000000000fffffffffffffffffffffffc09087fffffffff00000001000000000000000000000000ffffffffffffffffffffffff8788097fffffffff00000001000000000000000000000000ffffffffffffffffffffffff808289096004097fffffffff00000001000000000000000000000000ffffffffffffffffffffffff80600283097fffffffff00000001000000000000000000000000ffffffffffffffffffffffff037fffffffff00000001000000000000000000000000ffffffffffffffffffffffff8586090896507fffffffff00000001000000000000000000000000ffffffffffffffffffffffff808b8b0960020994507fffffffff00000001000000000000000000000000ffffffffffffffffffffffff807fffffffff00000001000000000000000000000000ffffffffffffffffffffffff8485096008097fffffffff00000001000000000000000000000000ffffffffffffffffffffffff037fffffffff00000001000000000000000000000000ffffffffffffffffffffffff808a7fffffffff00000001000000000000000000000000ffffffffffffffffffffffff03850886090895505050505093509350939050565b505050509450945094915050565b613927613efa565b600061395a83600260200201517fffffffff00000001000000000000000000000000ffffffffffffffffffffffff613068565b905060007fffffffff00000001000000000000000000000000ffffffffffffffffffffffff82830984519091507fffffffff00000001000000000000000000000000ffffffffffffffffffffffff9082900983527fffffffff00000001000000000000000000000000ffffffffffffffffffffffff808284096020860151096020840152509092915050565b6000803060405160200180807f6c6f636b65645f6f6e6574696d65000000000000000000000000000000000000815250600e019050604051602081830303815290604052805190602001208a8d8d8c8c8c604051602001808973ffffffffffffffffffffffffffffffffffffffff1673ffffffffffffffffffffffffffffffffffffffff166c01000000000000000000000000028152601401887bffffffffffffffffffffffffffffffffffffffffffffffffffffffff19167bffffffffffffffffffffffffffffffffffffffffffffffffffffffff191681526004018781526020018673ffffffffffffffffffffffffffffffffffffffff1673ffffffffffffffffffffffffffffffffffffffff166c010000000000000000000000000281526014018581526020018473ffffffffffffffffffffffffffffffffffffffff1673ffffffffffffffffffffffffffffffffffffffff166c0100000000000000000000000002815260140183815260200182805190602001908083835b60208310613ba057805182527fffffffffffffffffffffffffffffffffffffffffffffffffffffffffffffffe09092019160209182019101613b63565b6001836020036101000a038019825116818451168082178552505050505050905001985050505050505050506040516020818303038152906040528051906020012090506002613c408460017f010000000000000000000000000000000000000000000000000000000000000002600460009054906101000a90047c01000000000000000000000000000000000000000000000000000000000285612f0c565b6040518082805190602001908083835b60208310613c8d57805182527fffffffffffffffffffffffffffffffffffffffffffffffffffffffffffffffe09092019160209182019101613c50565b51815160209384036101000a7fffffffffffffffffffffffffffffffffffffffffffffffffffffffffffffffff01801990921691161790526040519190930194509192505080830381855afa158015613cea573d6000803e3d6000fd5b5050506040513d6020811015613cff57600080fd5b5051600154600254919250613d1a9183918891889190612790565b9b9a5050505050505050505050565b60008260405160200180807f19457468657265756d205369676e6564204d6573736167653a0a333200000000815250601c01828152602001915050604051602081830303815290604052805190602001209250600080600084516041141515613d98576000935050505061121b565b50505060208201516040830151606084015160001a601b60ff82161015613dbd57601b015b8060ff16601b14158015613dd557508060ff16601c14155b15613de6576000935050505061121b565b7f7fffffff800000007fffffffffffffffde737d56d38bcf4279dce5617e3192a88210613e1257600080fd5b6040805160008152602080820180845289905260ff8416828401526060820186905260808201859052915160019260a08084019391927fffffffffffffffffffffffffffffffffffffffffffffffffffffffffffffffe081019281900390910190855afa158015613e87573d6000803e3d6000fd5b50506040517fffffffffffffffffffffffffffffffffffffffffffffffffffffffffffffffe00151979650505050505050565b600060405160208152602080820152602060408201528460608201528360808201528260a082015260208160c08360006005619948f15051949350505050565b60408051808201825290600290829080388339509192915050565b606060405190810160405280600390602082028038833950919291505056fea165627a7a723058205e6b110bcb6ecc7069c1572c658e4b6e4ef1617f348fc58ef66df34d8ebfb8590029",
  "source": "pragma solidity ^0.5.1;\n\nimport \"./p256.sol\";\n\n//@Dev - This contract when deployed creates an idenity which regards any device capable of generating UF2 tokens as the holder of the idenity\n//@Dev - It allows yubi keys, some models of cell phone, and other devices to sign transactions and grant access to the identity to ethereum accounts\n//@Dev - Moreover it implements a full metatransactionl system which allows any ethereum account validated for this idenity to produce a signed message which when delateged to this account will produce a call from the identity\n//@Dev - Since the meta transactional call is generic this contract can natively hold all forms of token and preform any action an ethereum account can preform [except with those contracts which spesificaly do not allow contract interaction]\n//@Dev - It allows timestamping of ethereum address so that they expire [like access tokens to web2 websites]\n//@Dev - To enable a network of senders to not worry about front running it also allows locking of metatransactionl methods to a fufiller address until the lock expires\n\n\ncontract idenity is p256Lib{\n\n    mapping(address => bool) public isOwner;\n    uint256 public public_qx; //The coordinates of the registered public key\n    uint256 public public_qy;\n    bytes32 public validApplicationId;\n    bytes4 public counter; //We use bytes4 since FIDO UF2 uses big endian for its counter\n    byte constant public userPresance = 0x01;\n    mapping(address => uint) public timelock; // Contains the experation time of an address, set to zero for no experation\n    bytes public keyHandle; //Contains the keyhandle generated by the uf2 protocal on signing\n\n    // Metatransactional varibles\n    mapping(bytes32 => bool) used; //Mapping of burned hashes\n    //Each of these constants will procceed the signed meta transactions [To lock them to the function they should be used on]\n    bytes4 constant  REMOVE = bytes4(keccak256(abi.encodePacked(\"remove\")));\n    bytes4 constant  LOCKED_REMOVE = bytes4(keccak256(abi.encodePacked(\"locked_remove\")));\n    bytes4 constant  ADD = bytes4(keccak256(abi.encodePacked(\"add\")));\n    bytes4 constant  LOCKED_ADD = bytes4(keccak256(abi.encodePacked(\"locked_add\")));\n    bytes4 constant  CALL = bytes4(keccak256(abi.encodePacked(\"call\")));\n    bytes4 constant  LOCKED_CALL = bytes4(keccak256(abi.encodePacked(\"locked_call\")));\n    bytes4 constant  NEW = bytes4(keccak256(abi.encodePacked(\"new\")));\n    bytes4 constant  LOCKED_NEW = bytes4(keccak256(abi.encodePacked(\"locked_new\")));\n    bytes4 constant  ONETIME = bytes4(keccak256(abi.encodePacked(\"onetime\")));\n    bytes4 constant  LOCKED_ONETIME = bytes4(keccak256(abi.encodePacked(\"locked_onetime\")));\n\n    constructor(uint256 _public_qx, uint _public_qy, bytes32 applicationId, bytes4 _counter, bytes memory _keyHandle) public{\n        public_qx = _public_qx;\n        public_qy = _public_qy;\n        validApplicationId = applicationId;\n        counter = _counter;\n        keyHandle = _keyHandle;\n        isOwner[msg.sender] = true; //We will assume that the person constructing the identity is the user, a purely meta transactional model may not do this\n    }\n\n    //@Dev - The signature will be a NIST P-256 signature of the raw data signature from the U2F FIDO standard\n    function hardwareRootAccess(bytes4 _counter, bytes32 applicationParam,  uint r, uint s, uint fee, address newOwner, uint timestamp) external {\n        require(uint32(_counter) > uint32(counter));\n        require(validApplicationId == applicationParam);\n\n        bytes32 hash = keccak256(abi.encodePacked(address(this), NEW, newOwner, timestamp, fee));\n        hash = sha256(uf2Packed(applicationParam, userPresance, _counter, hash)); //TODO check against UF2 packing\n        //Use sha256 since UF2 doesn't have keccak256 as an option\n\n        require(verify(uint256(hash),r,s,public_qx, public_qy)); //Use the p256 library to check the spec256r/NIST 256 sig\n        isOwner[newOwner] = true; //Add the new owner\n        counter = _counter; //Update the record of the hardware counter\n        timelock[newOwner] = timestamp; //Set the experiation time requested\n\n        (msg.sender).transfer(fee); //Transfer gas repayment to sender\n    }\n\n    //@Dev - This version of hardware root access is locked to a single fulfiller until time 'lockExpire'\n    function hardwareRootAccess(bytes4 _counter, bytes32 applicationParam,  uint r, uint s, uint fee, address newOwner, uint timestamp, address fufiller, uint lockExpire) external {\n        require((msg.sender == fufiller) || (now > lockExpire));\n\n        require(uint32(_counter) > uint32(counter));\n        require(validApplicationId == applicationParam);\n\n        bytes32 hash = keccak256(abi.encodePacked(address(this), LOCKED_NEW, fufiller, lockExpire, newOwner, timestamp, fee));\n        hash = sha256(uf2Packed(applicationParam, userPresance, _counter, hash)); //TODO check against UF2 packing\n        //Use sha256 since UF2 doesn't have keccak256 as an option\n\n        require(verify(uint256(hash),r,s,public_qx, public_qy)); //Use the p256 library to check the spec256r/NIST 256 sig\n        isOwner[newOwner] = true; //Add the new owner\n        counter = _counter; //Update the record of the hardware counter\n        timelock[newOwner] = timestamp; //Set the experiation time requested\n\n        (msg.sender).transfer(fee); //Transfer gas repayment to sender\n    }\n\n    //@Dev - This function allows the creation of a one time transaction via UF2 token, instead of authorizing an address [Note because spec256r is non native this will be much more expensive for multiple transactions from an address]\n    function oneTimeCall(address payable _to, uint _value, bytes calldata _calldata, uint fee, bytes4 _counter, bytes32 applicationParam,  uint r, uint s) external returns(bool){\n      require(uint32(_counter) > uint32(counter));\n      require(validApplicationId == applicationParam);\n\n      bytes32 hash = keccak256(abi.encodePacked(address(this), ONETIME, _value, _to, fee, _calldata));\n      hash = sha256(uf2Packed(applicationParam, userPresance, _counter, hash)); //TODO check against UF2 packing\n      //Use sha256 since UF2 doesn't have keccak256 as an option\n\n      require(verify(uint256(hash),r,s,public_qx, public_qy)); //Use the p256 library to check the spec256r/NIST 256 sig\n\n      counter = _counter;\n      (bool success, ) = _to.call.value(_value)(_calldata); //Attempts the call requested\n\n      (msg.sender).transfer(fee); //Transfer gas repayment to sender\n      return(success);\n    }\n\n    //@Dev - Extension of one time call locked to a single fufiller until time 'lockExpires'\n    function oneTimeCall(address payable _to, uint _value, bytes calldata _calldata, uint fee, bytes4 _counter, bytes32 applicationParam,  uint r, uint s, address fufiller, uint lockExpire) external returns(bool){\n      require((msg.sender == fufiller) || (now > lockExpire));\n      require(uint32(_counter) > uint32(counter));\n      counter = _counter;\n      require(validApplicationId == applicationParam);\n\n      if(oneTimeHashLock(fufiller, lockExpire, _value, _to, fee, _calldata, r, s, applicationParam)){\n\n        counter = _counter;\n        (bool success, ) = _to.call.value(_value)(_calldata); //Attempts the call requested\n\n        (msg.sender).transfer(fee); //Transfer gas repayment to sender\n        return(success);\n      } else{\n          revert();\n      }\n    }\n    //@Dev - This internal function helps avoid stack errors\n    function oneTimeHashLock(address _fufiller, uint _lockExpire, uint _value, address _to, uint _fee, bytes memory _calldata, uint r, uint s, bytes32 applicationParam) internal returns(bool){\n        bytes32 hash = keccak256(abi.encodePacked(address(this), LOCKED_ONETIME, _value, _fufiller, _lockExpire, _to, _fee, _calldata));\n        hash = sha256(uf2Packed(applicationParam, userPresance, counter, hash)); //TODO check against UF2 packing\n        //Use sha256 since UF2 doesn't have keccak256 as an option\n\n       return(verify(uint256(hash),r,s,public_qx, public_qy)); //Use the p256 library to check the spec256r/NIST 256 sig\n    }\n\n    //@Dev- Proxy forwarding for the idenity\n    function forward(address payable _to, uint _value, bytes memory _calldata) public payable returns(bool) {\n      require(checkOwnership(msg.sender)); //Checks that the sender is a valid owner\n      (bool success, ) = _to.call.value(_value)(_calldata); //Attempts the call requested\n      require(success); // Checks that the data is valid\n    }\n\n    //@Overload the meta transactional forward method\n    function forward(address payable _to, uint _value, bytes memory _calldata, bytes32 salt, uint fee, bytes memory signature) public payable returns(bool) {\n      bytes32 hash = keccak256(abi.encodePacked(address(this), fee, CALL, salt, _value, _to, _calldata)); //Calculates the hash to be signed\n      address sender = recover_spec256(hash, signature); //Calls the ethereum version of the recover library\n      require(checkOwnership(sender));// Checks that the signer is the owner\n      require(!used[hash]); // Checks that the hash hasn't been burnt\n\n      (bool success, ) = _to.call.value(_value)(_calldata); //Calls the _to with the value and call data inputed\n      used[hash] = true; //Burns the hash\n      (msg.sender).transfer(fee); // Sends the fee\n      return(success); // Returns whether or not the call is successful\n    }\n\n    //@Overload the meta transactional forward method, with locking for fulfiller address [avoiding race conditions]\n    function forward(address payable _to, uint _value, bytes memory _calldata, bytes32 salt, uint fee, bytes memory signature, address fufiller, uint lockExpire) public payable returns(bool) {\n      require((msg.sender == fufiller) || (now > lockExpire));\n\n      bytes32 hash = keccak256(abi.encodePacked(address(this), fee, LOCKED_CALL, salt, fufiller, lockExpire, _to, _value, _calldata)); //Calculates the hash to be signed\n      address sender = recover_spec256(hash, signature); //Calls the ethereum version of the recover library\n      require(checkOwnership(sender));// Checks that the signer is the owner\n      require(!used[hash]); // Checks that the hash hasn't been burnt\n\n      (bool success, ) = _to.call.value(_value)(_calldata); //Calls the _to with the value and call data inputed\n      used[hash] = true; //Burns the hash\n      (msg.sender).transfer(fee); // Sends the fee\n      return(success); // Returns whether or not the call is successful\n    }\n\n    //@Dev - Add an account which can can access the idenity\n    function addAccount(address _add, uint timestamp) external{\n      require(checkOwnership(msg.sender));\n      timelock[_add] = timestamp;\n      isOwner[_add] = true;\n    }\n\n    //@Dev - Remove an account which can access the idenity\n    function removeAccount(address _remove) external{\n      require(checkOwnership(msg.sender));\n      isOwner[_remove] = false;\n    }\n\n    //@Dev - Add an account which can can access the idenity, overloaded meta transactional method\n    function addAccount(address _add, uint timestamp, bytes32 salt, uint fee, bytes calldata signature) external{\n      bytes32 hash = keccak256(abi.encodePacked(address(this), fee, ADD, salt, _add, timestamp)); //Hashes the needed data for the transaciton\n      address signer = recover_spec256(hash, signature); //Uses the ethereum address recovery method\n      require(checkOwnership(signer)); //Checks the ownership\n      require(!used[hash]); //Checks that the hash hasn't been used\n\n      isOwner[_add] = true; //Add the owner\n      timelock[_add] = timestamp; // Adds the expiration date for this address\n      used[hash] = true; //Burns the hash\n      (msg.sender).transfer(fee); //Sends the fee to the person who completed the meta transaction\n    }\n\n    //@Dev - Add an account which can can access the idenity, overloaded meta transactional method and locked to one fufiller till time 'lockExpire'\n    function addAccount(address _add, uint timestamp, bytes32 salt, uint fee, bytes calldata signature, address fufiller, uint lockExpire) external{\n      require((msg.sender == fufiller) || (now > lockExpire));\n\n      bytes32 hash = keccak256(abi.encodePacked(address(this), fee, LOCKED_ADD, salt, fufiller, lockExpire, _add, timestamp)); //Hashes the needed data for the transaciton\n      address signer = recover_spec256(hash, signature); //Uses the ethereum address recovery method\n      require(checkOwnership(signer)); //Checks the ownership\n      require(!used[hash]); //Checks that the hash hasn't been used\n\n      isOwner[_add] = true; //Add the owner\n      timelock[_add] = timestamp; // Adds the expiration date for this address\n      used[hash] = true; //Burns the hash\n      (msg.sender).transfer(fee); //Sends the fee to the person who completed the meta transaction\n    }\n\n    //@Dev - Remove an account which can access the idenity, overloaded metatransactional method\n    function removeAccount(address _remove, bytes32 salt, uint fee, bytes calldata signature) external{\n      bytes32 hash = keccak256(abi.encodePacked(address(this), fee, REMOVE, salt, _remove)); //Hahses the needed data\n      address signer = recover_spec256(hash, signature); //Uses the ethereum method to check who signed\n      require(checkOwnership(signer)); //Checks that the signer is the owner\n      require(!used[hash]);\n\n      isOwner[_remove] = false; //Removes the owner\n      used[hash] = true; //Burns the hash\n      (msg.sender).transfer(fee); //Gives the implementor thier fee\n    }\n\n    //@Dev - Remove an account which can access the idenity, overloaded metatransactional method which is locked to a single fufiller till time 'lockExpire'\n    function removeAccount(address _remove, bytes32 salt, uint fee, bytes calldata signature, address fufiller, uint lockExpire) external{\n      require((msg.sender == fufiller) || (now > lockExpire));\n\n      bytes32 hash = keccak256(abi.encodePacked(address(this), fee, LOCKED_REMOVE, fufiller, lockExpire, salt, _remove)); //Hahses the needed data\n      address signer = recover_spec256(hash, signature); //Uses the ethereum method to check who signed\n      require(checkOwnership(signer)); //Checks that the signer is the owner\n      require(!used[hash]);\n\n      isOwner[_remove] = false; //Removes the owner\n      used[hash] = true; //Burns the hash\n      (msg.sender).transfer(fee); //Gives the implementor thier fee\n    }\n\n    //@Dev - Allows contracts to check if from is in the same idenity as owner\n    function checkAddress(address _owner) external view{\n        require(checkOwnership(_owner));\n    }\n\n    function uf2Packed(bytes32 _applicationParam, byte _userPresance, bytes4 _counter, bytes32 _hash) private pure returns(bytes memory _b){\n        assembly{\n            mstore(_b, 0x45)\n            mstore(add(_b,0x20), _applicationParam)\n            mstore(add(_b, 0x40), _userPresance)\n            mstore(add(_b,0x41), _counter)\n            mstore(add(_b,0x45), _hash)\n        }\n    }\n\n    function checkOwnership(address proposed) private view returns(bool){\n      return (isOwner[proposed])&&(timelock[proposed] > now || timelock[proposed] == 0);\n    }\n\n    //@Dev - Signature Recovery\n    uint256 constant N  = 115792089210356248762697446949407573529996955224135760342422259061068512044369;\n    //This is the curve order for spec256k\n\n    function recover_spec256(bytes32 hash, bytes memory sig) private pure returns(address){\n        hash = keccak256(abi.encodePacked(\"\\x19Ethereum Signed Message:\\n32\", hash));\n\n        bytes32 r;\n        bytes32 s;\n        uint8 v;\n\n        if (sig.length != 65) return address(0);\n\n        assembly {\n            r := mload(add(sig, 32))\n            s := mload(add(sig, 64))\n            v := byte(0, mload(add(sig, 96)))\n        }\n\n        if (v < 27) {\n          v += 27;\n        }\n\n        if (v != 27 && v != 28) return address(0);\n\n        require(uint(s) < N/2); //We define that the lower s version of the signature is the valid one\n\n        return ecrecover(hash, v, r, s);\n    }\n}\n",
  "sourcePath": "/home/paul/applications/ghost-wallet/contracts/identity.sol",
  "compiler": {
    "name": "solc",
    "version": "0.5.2+commit.1df8f40c.Emscripten.clang"
  },
  "schemaVersion": "3.0.0",
  "updatedAt": "2019-02-25T19:51:19.010Z",
  "devdoc": {
    "methods": {}
  },
  "userdoc": {
    "methods": {}
  }
}