{
  "contractName": "p256Lib",
  "abi": [
    {
      "constant": false,
      "inputs": [
        {
          "name": "e",
          "type": "uint256"
        },
        {
          "name": "r",
          "type": "uint256"
        },
        {
          "name": "s",
          "type": "uint256"
        },
        {
          "name": "qx",
          "type": "uint256"
        },
        {
          "name": "qy",
          "type": "uint256"
        }
      ],
      "name": "verify",
      "outputs": [
        {
          "name": "",
          "type": "bool"
        }
      ],
      "payable": false,
      "stateMutability": "nonpayable",
      "type": "function"
    },
    {
      "constant": false,
      "inputs": [
        {
          "name": "e",
          "type": "uint256"
        },
        {
          "name": "v",
          "type": "uint8"
        },
        {
          "name": "r",
          "type": "uint256"
        },
        {
          "name": "s",
          "type": "uint256"
        }
      ],
      "name": "recover",
      "outputs": [
        {
          "name": "",
          "type": "uint256[2]"
        }
      ],
      "payable": false,
      "stateMutability": "nonpayable",
      "type": "function"
    },
    {
      "constant": true,
      "inputs": [
        {
          "name": "x",
          "type": "uint256"
        },
        {
          "name": "y",
          "type": "uint256"
        }
      ],
      "name": "isPoint",
      "outputs": [
        {
          "name": "",
          "type": "bool"
        }
      ],
      "payable": false,
      "stateMutability": "pure",
      "type": "function"
    }
  ],
  "bytecode": "0x608060405234801561001057600080fd5b50610e71806100206000396000f3fe608060405234801561001057600080fd5b506004361061005d577c010000000000000000000000000000000000000000000000000000000060003504631340d09a81146100625780634828f4a2146100995780638554d92c14610106575b600080fd5b6100856004803603604081101561007857600080fd5b508035906020013561013b565b604080519115158252519081900360200190f35b6100cb600480360360808110156100af57600080fd5b5080359060ff6020820135169060408101359060600135610172565b6040518082600260200280838360005b838110156100f35781810151838201526020016100db565b5050505090500191505060405180910390f35b610085600480360360a081101561011c57600080fd5b5080359060208101359060408101359060608101359060800135610282565b600061014683610395565b7fffffffff00000001000000000000000000000000ffffffffffffffffffffffff838409149392505050565b61017a610e0b565b6000857fffffffff00000000ffffffffffffffffbce6faada7179e84f3b9cac2fc63255103905060006101cd857fffffffff00000000ffffffffffffffffbce6faada7179e84f3b9cac2fc63255161044d565b905060007fffffffff00000000ffffffffffffffffbce6faada7179e84f3b9cac2fc632551858309905060007fffffffff00000000ffffffffffffffffbce6faada7179e84f3b9cac2fc6325518484099050600061022b888a610464565b9050600080600061023e85878d876104d8565b92509250925061024c610e26565b50604080516060810182528481526020810184905290810182905261027081610d04565b9e9d5050505050505050505050505050565b6000806102af857fffffffff00000000ffffffffffffffffbce6faada7179e84f3b9cac2fc63255161044d565b9050600080806103077fffffffff00000000ffffffffffffffffbce6faada7179e84f3b9cac2fc632551858c097fffffffff00000000ffffffffffffffffbce6faada7179e84f3b9cac2fc632551868c0989896104d8565b91945092509050600061035b827fffffffff00000001000000000000000000000000fffffffffffffffffffffffc7fffffffff00000001000000000000000000000000ffffffffffffffffffffffff610dcb565b905060007fffffffff00000001000000000000000000000000ffffffffffffffffffffffff828609909a149b9a5050505050505050505050565b60007fffffffff00000001000000000000000000000000ffffffffffffffffffffffff807f5ac635d8aa3a93e7b3ebbd55769886bc651d06b0cc53b0f63bce3c3e27d2604b7fffffffff00000001000000000000000000000000ffffffffffffffffffffffff857fffffffff00000001000000000000000000000000fffffffffffffffffffffffc09087fffffffff00000001000000000000000000000000ffffffffffffffffffffffff8085860985090892915050565b600061045d836002840384610dcb565b9392505050565b6000806104ba61047385610395565b7f3fffffffc00000004000000000000000000000004000000000000000000000007fffffffff00000001000000000000000000000000ffffffffffffffffffffffff610dcb565b905060ff8316156104ce57806000036104d0565b805b949350505050565b600080600061052d6001858760017f4fe342e2fe1a7f9b8ee7eb4a7c0f9e162bce33576b315ececbb6406837bf51f57f6b17d1f2e12c4247f8bce6e563a440f277037d812deb33a0f4a13945d898c2966106c7565b7f80000000000000000000000000000000000000000000000000000000000000008a8a175b808216151561056657600282049150610552565b508a811615156001811461058357899750889650600195506105eb565b8a82161515600181146105df577f6b17d1f2e12c4247f8bce6e563a440f277037d812deb33a0f4a13945d898c29698507f4fe342e2fe1a7f9b8ee7eb4a7c0f9e162bce33576b315ececbb6406837bf51f59750600196506105e9565b8598508497508396505b505b50600290045b80156106c257610602858789610a82565b9650965096506000818c1614156001811461063a578a8216156106355761062e86888a60018d8f6106c7565b9750975097505b6106b8565b8a82161515600181146106a15761069687898b60017f4fe342e2fe1a7f9b8ee7eb4a7c0f9e162bce33576b315ececbb6406837bf51f57f6b17d1f2e12c4247f8bce6e563a440f277037d812deb33a0f4a13945d898c2966106c7565b9850985098506106b6565b6106af87898b87898b6106c7565b9850985098505b505b50600290046105f1565b610a7d565b60008060008060007fffffffff00000001000000000000000000000000ffffffffffffffffffffffff8b8c097fffffffff00000001000000000000000000000000ffffffffffffffffffffffff81880991507fffffffff00000001000000000000000000000000ffffffffffffffffffffffff808d830989097fffffffff00000001000000000000000000000000ffffffffffffffffffffffff8a8b0991507fffffffff00000001000000000000000000000000ffffffffffffffffffffffff828c0993507fffffffff00000001000000000000000000000000ffffffffffffffffffffffff808b84098d0984841460018114610a0b577fffffffff00000001000000000000000000000000ffffffffffffffffffffffff857fffffffff00000001000000000000000000000000ffffffffffffffffffffffff03870895507fffffffff00000001000000000000000000000000ffffffffffffffffffffffff86870993507fffffffff00000001000000000000000000000000ffffffffffffffffffffffff8486097fffffffff00000001000000000000000000000000ffffffffffffffffffffffff85880994507fffffffff00000001000000000000000000000000ffffffffffffffffffffffff847fffffffff00000001000000000000000000000000ffffffffffffffffffffffff03840892507fffffffff00000001000000000000000000000000ffffffffffffffffffffffff80826002097fffffffff00000001000000000000000000000000ffffffffffffffffffffffff037fffffffff00000001000000000000000000000000ffffffffffffffffffffffff877fffffffff00000001000000000000000000000000ffffffffffffffffffffffff037fffffffff00000001000000000000000000000000ffffffffffffffffffffffff878809080899507fffffffff00000001000000000000000000000000ffffffffffffffffffffffff808686097fffffffff00000001000000000000000000000000ffffffffffffffffffffffff037fffffffff00000001000000000000000000000000ffffffffffffffffffffffff808d7fffffffff00000001000000000000000000000000ffffffffffffffffffffffff038508860908985050610a39565b828214610a1f576001985060019750600096505b81831415610a3957610a328c8c8c610a82565b9850985098505b5050508183149050610a6f577fffffffff00000001000000000000000000000000ffffffffffffffffffffffff808c8a09830992505b505096509650969350505050565b610cf6565b60008080841515610a9857506001915081905060005b7fffffffff00000001000000000000000000000000ffffffffffffffffffffffff8687097fffffffff00000001000000000000000000000000ffffffffffffffffffffffff807fffffffff00000001000000000000000000000000ffffffffffffffffffffffff8788096003097fffffffff00000001000000000000000000000000ffffffffffffffffffffffff808485097fffffffff00000001000000000000000000000000fffffffffffffffffffffffc09087fffffffff00000001000000000000000000000000ffffffffffffffffffffffff8788097fffffffff00000001000000000000000000000000ffffffffffffffffffffffff808289096004097fffffffff00000001000000000000000000000000ffffffffffffffffffffffff80600283097fffffffff00000001000000000000000000000000ffffffffffffffffffffffff037fffffffff00000001000000000000000000000000ffffffffffffffffffffffff8586090896507fffffffff00000001000000000000000000000000ffffffffffffffffffffffff808b8b0960020994507fffffffff00000001000000000000000000000000ffffffffffffffffffffffff807fffffffff00000001000000000000000000000000ffffffffffffffffffffffff8485096008097fffffffff00000001000000000000000000000000ffffffffffffffffffffffff037fffffffff00000001000000000000000000000000ffffffffffffffffffffffff808a7fffffffff00000001000000000000000000000000ffffffffffffffffffffffff03850886090895505050505093509350939050565b505050509450945094915050565b610d0c610e0b565b6000610d3f83600260200201517fffffffff00000001000000000000000000000000ffffffffffffffffffffffff61044d565b905060007fffffffff00000001000000000000000000000000ffffffffffffffffffffffff82830984519091507fffffffff00000001000000000000000000000000ffffffffffffffffffffffff9082900983527fffffffff00000001000000000000000000000000ffffffffffffffffffffffff808284096020860151096020840152509092915050565b600060405160208152602080820152602060408201528460608201528360808201528260a082015260208160c08360006005619948f15051949350505050565b60408051808201825290600290829080388339509192915050565b606060405190810160405280600390602082028038833950919291505056fea165627a7a72305820535b5f8e6e006dcd2e9a32d39ee08d9fc99a6d6d180bae685fcc1b039467ee740029",
  "source": "pragma solidity ^0.5.2;\n\n\ncontract ModExp {\n\n    // address constant MODEXP_BUILTIN = 0x0000000000000000000000000000000000000005;\n\n    function modexp(uint256 b, uint256 e, uint256 m) internal returns(uint256 result) {\n        assembly {\n            let freemem := mload(0x40)\n            mstore(freemem, 0x20)\n            mstore(add(freemem,0x20), 0x20)\n            mstore(add(freemem,0x40), 0x20)\n            mstore(add(freemem,0x60), b)\n            mstore(add(freemem,0x80), e)\n            mstore(add(freemem,0xA0), m)\n            let _ := call(39240, 0x0000000000000000000000000000000000000005, 0, freemem, 0xC0, freemem, 0x20)\n            result := mload(freemem)\n        }\n    }\n\n}\n\n\n// Library for secp256r1, forked from https://github.com/tls-n/tlsnutils/blob/master/contracts/ECMath.sol\ncontract p256Lib is ModExp {\n\n    //curve parameters secp256r1\n    uint256 constant A  = 115792089210356248762697446949407573530086143415290314195533631308867097853948;\n    uint256 constant B  = 41058363725152142129326129780047268409114441015993725554835256314039467401291;\n    uint256 constant GX = 48439561293906451759052585252797914202762949526041747995844080717082404635286;\n    uint256 constant GY = 36134250956749795798585127919587881956611106672985015071877198253568414405109;\n    uint256 constant P  = 115792089210356248762697446949407573530086143415290314195533631308867097853951;\n    uint256 constant N  = 115792089210356248762697446949407573529996955224135760342422259061068512044369;\n    uint256 constant H  = 1;\n\n\n    function verify(uint256 e, uint256 r, uint256 s, uint256 qx, uint256 qy) public returns(bool) {\n      \n        uint256 w = invmod(s, N);\n\n        (uint ret1, uint ret2, uint ret3) = assemblyShamir(mulmod(e, w, N), mulmod(r, w, N), qx, qy);\n\n        uint256 zInv2 = modexp(ret3, P - 3, P);\n        uint256 x = mulmod(ret1, zInv2, P); // JtoA(comb)[0];\n        return r == x;\n    }\n\n\n    function recover(uint256 e, uint8 v, uint256 r, uint256 s) public returns(uint256[2] memory) {\n\n        uint256 eInv = N - e;\n        uint256 rInv = invmod(r, N);\n        uint256 srInv = mulmod(rInv, s, N);\n        uint256 eInvrInv = mulmod(rInv, eInv, N);\n\n        uint256 ry = decompressPoint(r, v);\n        (uint r0, uint r1, uint r2) = assemblyShamir(eInvrInv, srInv, r, ry);\n        uint[3] memory q = [r0, r1, r2];\n        return JtoA(q);\n    }\n\n    function assemblyShamir(uint256 u1, uint256 u2, uint256 qx, uint256 qy) internal pure returns(uint r0, uint r1, uint r2) {\n      assembly{\n        let z0, z1 , z2 := ecAdd(48439561293906451759052585252797914202762949526041747995844080717082404635286,36134250956749795798585127919587881956611106672985015071877198253568414405109,1,qx,qy,1)\n\n        let mask :=  exp(2,255)\n        {\n          let compare := or(u1, u2)\n          for {} eq(and(compare, mask), 0) {} {\n              mask := div(mask, 2)\n          }\n        } //Scope because we don't need compare long term\n\n        switch iszero(eq(and(u1, mask), 0))\n        case 1 {\n            switch iszero(eq(and(u2, mask), 0))\n            case 1 {\n                r0 := z0\n                r1 := z1\n                r2 := z2\n            }\n            default {\n                r0 := 48439561293906451759052585252797914202762949526041747995844080717082404635286\n                r1 := 36134250956749795798585127919587881956611106672985015071877198253568414405109\n                r2 := 1\n            }\n        }\n        default {\n            r0 := qx\n            r1 := qy\n            r2 := 1\n        }\n\n        mask := div(mask, 2)\n        for {} iszero(eq(mask, 0)) {mask := div(mask, 2)} {\n\n            r0,r1,r2  := double(r0,r1,r2)\n\n            switch iszero(eq(and(u1,mask), 0))\n            case 1 {\n                switch iszero(eq(and(u2,mask), 0))\n                case 1 {\n                  r0, r1, r2 := ecAdd(z0,z1,z2,r0,r1,r2)\n                }\n                default {\n                  r0, r1, r2 := ecAdd(48439561293906451759052585252797914202762949526041747995844080717082404635286, 36134250956749795798585127919587881956611106672985015071877198253568414405109, 1, r0, r1, r2)\n                }\n            }\n            default {\n                if iszero(eq(and(u2, mask), 0)) {\n                  r0, r1, r2 := ecAdd(qx, qy, 1, r0, r1, r2)\n                }\n            }\n        }\n\n        function ecAdd(_p0, _p1, _p2, _q0, _q1, _q2) -> _r0, _r1, _r2 {\n          let _u2 := 0\n          let _u1 := 0\n          {\n          let _z2 := mulmod(_q2,_q2, 115792089210356248762697446949407573530086143415290314195533631308867097853951)\n          _u1 := mulmod(_p0, _z2, 115792089210356248762697446949407573530086143415290314195533631308867097853951)\n          let _s1 := mulmod(_p1, mulmod(_z2, _q2, 115792089210356248762697446949407573530086143415290314195533631308867097853951), 115792089210356248762697446949407573530086143415290314195533631308867097853951)\n          _z2 := mulmod(_p2, _p2, 115792089210356248762697446949407573530086143415290314195533631308867097853951)\n          _u2 := mulmod(_q0, _z2, 115792089210356248762697446949407573530086143415290314195533631308867097853951)\n          let _s2 := mulmod(_q1, mulmod(_z2, _p2, 115792089210356248762697446949407573530086143415290314195533631308867097853951), 115792089210356248762697446949407573530086143415290314195533631308867097853951)\n\n          switch eq(_u1, _u2)\n          case 1 {\n            if iszero(eq(_s1, _s2)) {\n              //Return Point at infinity\n              _r0 := 1\n              _r1 := 1\n              _r2 := 0\n            }\n            if eq(_s1,_s2){\n              //returns the double point\n              _r0,_r1,_r2 := double(_p0, _p1, _p2)\n            }\n          }\n          default {\n            _u2 := addmod(_u2, sub(115792089210356248762697446949407573530086143415290314195533631308867097853951, _u1), 115792089210356248762697446949407573530086143415290314195533631308867097853951)\n            _z2 := mulmod(_u2, _u2, 115792089210356248762697446949407573530086143415290314195533631308867097853951)\n            let _t2 := mulmod(_u1, _z2, 115792089210356248762697446949407573530086143415290314195533631308867097853951)\n            _z2 := mulmod(_u2, _z2, 115792089210356248762697446949407573530086143415290314195533631308867097853951)\n            _s2 := addmod(_s2, sub(115792089210356248762697446949407573530086143415290314195533631308867097853951 , _s1) , 115792089210356248762697446949407573530086143415290314195533631308867097853951)\n\n            // Uses s2, t2, z2\n            _r0 := addmod(addmod(mulmod(_s2, _s2, 115792089210356248762697446949407573530086143415290314195533631308867097853951), sub(115792089210356248762697446949407573530086143415290314195533631308867097853951, _z2) , 115792089210356248762697446949407573530086143415290314195533631308867097853951), sub(115792089210356248762697446949407573530086143415290314195533631308867097853951, mulmod(2, _t2, 115792089210356248762697446949407573530086143415290314195533631308867097853951)), 115792089210356248762697446949407573530086143415290314195533631308867097853951)\n\n            //Uses s2, t2, r0, s1\n            _r1 := addmod(mulmod(_s2, addmod(_t2, sub(115792089210356248762697446949407573530086143415290314195533631308867097853951, _r0), 115792089210356248762697446949407573530086143415290314195533631308867097853951), 115792089210356248762697446949407573530086143415290314195533631308867097853951), sub(115792089210356248762697446949407573530086143415290314195533631308867097853951, mulmod(_s1, _z2, 115792089210356248762697446949407573530086143415290314195533631308867097853951)), 115792089210356248762697446949407573530086143415290314195533631308867097853951)\n            //Uses u2, p2, q2,\n            /* r2 :=  mulmod(u2, mulmod(p2, q2, 115792089210356248762697446949407573530086143415290314195533631308867097853951), 115792089210356248762697446949407573530086143415290314195533631308867097853951) */\n           }\n          } //We have cleared the context block so cleared the stack and avoided the inaccessable stack error\n          // assembly needs a command to delete local varibles so I can manualy clear the stack\n          if iszero(eq(_u1, _u2)) { //If we don't check we will overwrite the other valid case\n            _r2 :=  mulmod(_u2, mulmod(_p2, _q2, 115792089210356248762697446949407573530086143415290314195533631308867097853951), 115792089210356248762697446949407573530086143415290314195533631308867097853951)\n          }\n        }\n\n        function double(_p0, _p1, _p2) -> _r0, _r1, _r2 {\n          if eq(_p1, 0) {\n              _r0 := 0x1\n              _r1 := 0x1\n              _r2 := 0x0\n          }\n          let _z2 := mulmod(_p2, _p2, 115792089210356248762697446949407573530086143415290314195533631308867097853951)\n          let _m := addmod(mulmod(115792089210356248762697446949407573530086143415290314195533631308867097853948, mulmod(_z2, _z2, 115792089210356248762697446949407573530086143415290314195533631308867097853951), 115792089210356248762697446949407573530086143415290314195533631308867097853951), mulmod(3, mulmod(_p0, _p0, 115792089210356248762697446949407573530086143415290314195533631308867097853951), 115792089210356248762697446949407573530086143415290314195533631308867097853951), 115792089210356248762697446949407573530086143415290314195533631308867097853951)\n          let _y2 := mulmod(_p1, _p1, 115792089210356248762697446949407573530086143415290314195533631308867097853951)\n          let _s := mulmod(4, mulmod(_p0, _y2, 115792089210356248762697446949407573530086143415290314195533631308867097853951), 115792089210356248762697446949407573530086143415290314195533631308867097853951)\n\n          _r0 := addmod(mulmod(_m, _m, 115792089210356248762697446949407573530086143415290314195533631308867097853951), sub( 115792089210356248762697446949407573530086143415290314195533631308867097853951, mulmod(_s, 2, 115792089210356248762697446949407573530086143415290314195533631308867097853951)), 115792089210356248762697446949407573530086143415290314195533631308867097853951)\n          _r2 := mulmod(2, mulmod(_p1, _p2, 115792089210356248762697446949407573530086143415290314195533631308867097853951), 115792089210356248762697446949407573530086143415290314195533631308867097853951)\n          _r1 := addmod( mulmod(_m, addmod(_s, sub(115792089210356248762697446949407573530086143415290314195533631308867097853951, _r0), 115792089210356248762697446949407573530086143415290314195533631308867097853951), 115792089210356248762697446949407573530086143415290314195533631308867097853951), sub(115792089210356248762697446949407573530086143415290314195533631308867097853951, mulmod(8,mulmod(_y2, _y2, 115792089210356248762697446949407573530086143415290314195533631308867097853951), 115792089210356248762697446949407573530086143415290314195533631308867097853951)), 115792089210356248762697446949407573530086143415290314195533631308867097853951)\n        }\n      }\n    }\n\n    function getSqrY(uint256 x) private pure returns(uint256) {\n        //return y^2=x^3+Ax+B\n        return addmod(mulmod(x, mulmod(x, x, P), P), addmod(mulmod(A, x, P), B, P), P);\n    }\n\n\n    //function checks if point (x, y) is on curve, x and y affine coordinate parameters\n    function isPoint(uint256 x, uint256 y) public pure returns(bool) {\n        //point fulfills y^2=x^3+Ax+B?\n        return mulmod(y, y, P) == getSqrY(x);\n    }\n\n\n    function decompressPoint(uint256 x, uint8 yBit) private returns(uint256) {\n        //return sqrt(x^3+Ax+B)\n        uint256 absy = modexp(getSqrY(x), 1+(P-3)/4, P);\n        return yBit == 0 ? absy : -absy;\n    }\n\n    function assemblyAdd(uint[3] memory _p, uint256[3] memory _q) private pure returns(uint256[3] memory r){\n\n      assembly{\n          let p_0 := mload(_p)\n          let p_1 := mload(add(_p, 0x20))\n          let p_2 := mload(add(_p, 0x40))\n          let q_0 := mload(_q)\n          let q_1 := mload(add(_q, 0x20))\n          let q_2 := mload(add(_q, 0x40))\n\n          ecAdd(p_0, p_1, p_2, q_0, q_1, q_2, r)\n\n          function ecAdd(p0, p1, p2, q0, q1, q2, _r) {\n            let z2 := mulmod(q2,q2, 115792089210356248762697446949407573530086143415290314195533631308867097853951)\n            let u1 := mulmod(p0, z2, 115792089210356248762697446949407573530086143415290314195533631308867097853951)\n            let s1 := mulmod(p1, mulmod(z2, q2, 115792089210356248762697446949407573530086143415290314195533631308867097853951), 115792089210356248762697446949407573530086143415290314195533631308867097853951)\n            z2 := mulmod(p2, p2, 115792089210356248762697446949407573530086143415290314195533631308867097853951)\n            let u2 := mulmod(q0, z2, 115792089210356248762697446949407573530086143415290314195533631308867097853951)\n            let s2 := mulmod(q1, mulmod(z2, p2, 115792089210356248762697446949407573530086143415290314195533631308867097853951), 115792089210356248762697446949407573530086143415290314195533631308867097853951)\n\n            if eq(u1, u2) {\n              if iszero(eq(s1, s2)) {\n                //Return Point at infinity\n                mstore(_r, 0x1)\n                mstore(add(_r,0x20), 0x1)\n                mstore(add(_r,0x40), 0x0)\n              }\n              if eq(s1,s2){\n                {let x,y,z := double(p0, p1, p2)}\n              }\n            }\n\n            u2 := addmod(u2, sub(115792089210356248762697446949407573530086143415290314195533631308867097853951, u1), 115792089210356248762697446949407573530086143415290314195533631308867097853951)\n            z2 := mulmod(u2, u2, 115792089210356248762697446949407573530086143415290314195533631308867097853951)\n            let t2 := mulmod(u1, z2, 115792089210356248762697446949407573530086143415290314195533631308867097853951)\n            z2 := mulmod(u2, z2, 115792089210356248762697446949407573530086143415290314195533631308867097853951)\n            s2 := addmod(s2, sub(115792089210356248762697446949407573530086143415290314195533631308867097853951 ,s1) , 115792089210356248762697446949407573530086143415290314195533631308867097853951)\n\n            let r0 := addmod(addmod(mulmod(s2, s2, 115792089210356248762697446949407573530086143415290314195533631308867097853951), sub(115792089210356248762697446949407573530086143415290314195533631308867097853951, z2) , 115792089210356248762697446949407573530086143415290314195533631308867097853951), sub(115792089210356248762697446949407573530086143415290314195533631308867097853951, mulmod(2, t2, 115792089210356248762697446949407573530086143415290314195533631308867097853951)), 115792089210356248762697446949407573530086143415290314195533631308867097853951)\n            mstore(_r, r0)\n            mstore(add(_r,0x20), addmod(mulmod(s2, addmod(t2, sub(115792089210356248762697446949407573530086143415290314195533631308867097853951, r0), 115792089210356248762697446949407573530086143415290314195533631308867097853951), 115792089210356248762697446949407573530086143415290314195533631308867097853951), sub(115792089210356248762697446949407573530086143415290314195533631308867097853951, mulmod(s1, z2, 115792089210356248762697446949407573530086143415290314195533631308867097853951)), 115792089210356248762697446949407573530086143415290314195533631308867097853951))\n            mstore(add(_r,0x40), mulmod(u2, mulmod(p2, q2, 115792089210356248762697446949407573530086143415290314195533631308867097853951), 115792089210356248762697446949407573530086143415290314195533631308867097853951))\n          }\n\n          function double(p0, p1, p2) -> r0,r1,r2 {\n\n            if eq(p1, 0) {\n                r0 := 0x1\n                r1 := 0x1\n                r2 := 0x0\n            }\n            let P := 115792089210356248762697446949407573530086143415290314195533631308867097853951\n            let A := 115792089210356248762697446949407573530086143415290314195533631308867097853948\n            let z2 := mulmod(p2, p2, 115792089210356248762697446949407573530086143415290314195533631308867097853951)\n            let m := addmod(mulmod(115792089210356248762697446949407573530086143415290314195533631308867097853948, mulmod(z2, z2, 115792089210356248762697446949407573530086143415290314195533631308867097853951), 115792089210356248762697446949407573530086143415290314195533631308867097853951), mulmod(3, mulmod(p0, p0, 115792089210356248762697446949407573530086143415290314195533631308867097853951), 115792089210356248762697446949407573530086143415290314195533631308867097853951), 115792089210356248762697446949407573530086143415290314195533631308867097853951)\n            let y2 := mulmod(p1, p1, 115792089210356248762697446949407573530086143415290314195533631308867097853951)\n            let s := mulmod(4, mulmod(p0, y2, 115792089210356248762697446949407573530086143415290314195533631308867097853951), 115792089210356248762697446949407573530086143415290314195533631308867097853951)\n\n            r0 := addmod(mulmod(m,m, 115792089210356248762697446949407573530086143415290314195533631308867097853951), sub( 115792089210356248762697446949407573530086143415290314195533631308867097853951, mulmod(s, 2, 115792089210356248762697446949407573530086143415290314195533631308867097853951)), 115792089210356248762697446949407573530086143415290314195533631308867097853951)\n            r2 := mulmod(2, mulmod(p1, p2, 115792089210356248762697446949407573530086143415290314195533631308867097853951), 115792089210356248762697446949407573530086143415290314195533631308867097853951)\n            r1 := addmod( mulmod(m, addmod(s, sub(115792089210356248762697446949407573530086143415290314195533631308867097853951, r0), 115792089210356248762697446949407573530086143415290314195533631308867097853951), 115792089210356248762697446949407573530086143415290314195533631308867097853951), sub(115792089210356248762697446949407573530086143415290314195533631308867097853951, mulmod(8,mulmod(y2, y2, 115792089210356248762697446949407573530086143415290314195533631308867097853951), 115792089210356248762697446949407573530086143415290314195533631308867097853951)), 115792089210356248762697446949407573530086143415290314195533631308867097853951)\n          }\n        }\n\n    }\n\n    function assemblyDouble(uint[3] memory _p) private pure returns(uint[3] memory _r) {\n        assembly{\n            let p0 := mload(add(_p, 0x00))\n            let p1 := mload(add(_p, 0x20))\n            let p2 := mload(add(_p, 0x40))\n\n            if eq(p1, 0) {\n                mstore(add(_r,0x00), 0x1)\n                mstore(add(_r,0x20), 0x1)\n                mstore(add(_r,0x40), 0x0)\n            }\n\n            let P := 115792089210356248762697446949407573530086143415290314195533631308867097853951\n            let A := 115792089210356248762697446949407573530086143415290314195533631308867097853948\n            let z2 := mulmod(p2, p2, 115792089210356248762697446949407573530086143415290314195533631308867097853951)\n            let m := addmod(mulmod(115792089210356248762697446949407573530086143415290314195533631308867097853948, mulmod(z2, z2, 115792089210356248762697446949407573530086143415290314195533631308867097853951), 115792089210356248762697446949407573530086143415290314195533631308867097853951), mulmod(3, mulmod(p0, p0, 115792089210356248762697446949407573530086143415290314195533631308867097853951), 115792089210356248762697446949407573530086143415290314195533631308867097853951), 115792089210356248762697446949407573530086143415290314195533631308867097853951)\n            let y2 := mulmod(p1, p1, 115792089210356248762697446949407573530086143415290314195533631308867097853951)\n            let s := mulmod(4, mulmod(p0, y2, 115792089210356248762697446949407573530086143415290314195533631308867097853951), 115792089210356248762697446949407573530086143415290314195533631308867097853951)\n\n            let r0 := addmod(mulmod(m,m, 115792089210356248762697446949407573530086143415290314195533631308867097853951), sub( 115792089210356248762697446949407573530086143415290314195533631308867097853951, mulmod(s, 2, 115792089210356248762697446949407573530086143415290314195533631308867097853951)), 115792089210356248762697446949407573530086143415290314195533631308867097853951)\n            let r2 := mulmod(2, mulmod(p1, p2, 115792089210356248762697446949407573530086143415290314195533631308867097853951), 115792089210356248762697446949407573530086143415290314195533631308867097853951)\n            let r1 := addmod( mulmod(m, addmod(s, sub(115792089210356248762697446949407573530086143415290314195533631308867097853951, r0), 115792089210356248762697446949407573530086143415290314195533631308867097853951), 115792089210356248762697446949407573530086143415290314195533631308867097853951), sub(115792089210356248762697446949407573530086143415290314195533631308867097853951, mulmod(8,mulmod(y2, y2, 115792089210356248762697446949407573530086143415290314195533631308867097853951), 115792089210356248762697446949407573530086143415290314195533631308867097853951)), 115792089210356248762697446949407573530086143415290314195533631308867097853951)\n            //mstore(add(_p,0x20), r0)\n            //mstore(add(_p,0x40), r1)\n            //mstore(add(_p,0x60), r2)\n            mstore(add(_r,0x00), r0)\n            mstore(add(_r,0x20), r1)\n            mstore(add(_r,0x40), r2)\n        }\n    }\n\n\n    //jacobian to affine coordinates transformation\n    function JtoA(uint256[3] memory p) private returns(uint256[2] memory Pnew) {\n        uint zInv = invmod(p[2], P);\n        uint zInv2 = mulmod(zInv, zInv, P);\n        Pnew[0] = mulmod(p[0], zInv2, P);\n        Pnew[1] = mulmod(p[1], mulmod(zInv, zInv2, P), P);\n    }\n\n\n    //computing inverse by using fermat's theorem\n    function invmod(uint256 _a, uint _p) internal returns(uint256 invA) {\n        invA = modexp(_a, _p - 2, _p);\n    }\n\n    //@ Dev - The orginal code which was assemblifed\n    /* //We lay out memory starting at zero 32 bytes public key X 32 bytes public\n    function calcPointShamir(uint256 u1, uint256 u2, uint256 qx, uint256 qy) private pure returns(uint[3] memory R) {\n        uint256[3] memory G = [GX, GY, 1];\n        uint256[3] memory Q = [qx, qy, 1];\n        uint256[3] memory Z = assemblyAdd(Q, G);\n\n        uint256 mask = 2**255;\n\n        // Skip leading zero bits\n        uint256 or = u1 | u2;\n        while (or & mask == 0) {\n            mask = mask / 2;\n        }\n\n        // Initialize output\n        if (u1 & mask != 0) {\n            if (u2 & mask != 0) {\n                R = Z;\n            }\n            else {\n                R = G;\n            }\n        }\n        else {\n            R = Q;\n        }\n\n        while (true) {\n\n            mask = mask / 2;\n            if (mask == 0) {\n                break;\n            }\n\n            R = ecdouble(R);\n\n            if (u1 & mask != 0) {\n                if (u2 & mask != 0) {\n                    R = ecadd(Z, R);\n                }\n                else {\n                    R = ecadd(G, R);\n                }\n            }\n            else {\n                if (u2 & mask != 0) {\n                    R = ecadd(Q, R);\n                }\n            }\n        }\n    }\n    // point addition for elliptic curve in jacobian coordinates\n    // formula from https://en.wikibooks.org/wiki/Cryptography/Prime_Curve/Jacobian_Coordinates\n    function ecadd(uint256[3] memory _p, uint256[3] memory _q) private pure returns(uint256[3] memory R) {\n\n        // if (_q[0] == 0 && _q[1] == 0 && _q[2] == 0) {\n        // \treturn _p;\n        // }\n\n        uint256 z2 = mulmod(_q[2], _q[2], P);\n        uint256 u1 = mulmod(_p[0], z2, P);\n        uint256 s1 = mulmod(_p[1], mulmod(z2, _q[2], P), P);\n        z2 = mulmod(_p[2], _p[2], P);\n        uint256 u2 = mulmod(_q[0], z2, P);\n        uint256 s2 = mulmod(_q[1], mulmod(z2, _p[2], P), P);\n\n        if (u1 == u2) {\n            if (s1 != s2) {\n                //return point at infinity\n                return [uint256(1), 1, 0];\n            }\n            else {\n                return ecdouble(_p);\n            }\n        }\n\n        u2 = addmod(u2, P - u1, P);\n        z2 = mulmod(u2, u2, P);\n        uint256 t2 = mulmod(u1, z2, P);\n        z2 = mulmod(u2, z2, P);\n        s2 = addmod(s2, P - s1, P);\n        R[0] = addmod(addmod(mulmod(s2, s2, P), P - z2, P), P - mulmod(2, t2, P), P);\n        R[1] = addmod(mulmod(s2, addmod(t2, P - R[0], P), P), P - mulmod(s1, z2, P), P);\n        R[2] = mulmod(u2, mulmod(_p[2], _q[2], P), P);\n    }\n    //point doubling for elliptic curve in jacobian coordinates\n    //formula from https://en.wikibooks.org/wiki/Cryptography/Prime_Curve/Jacobian_Coordinates\n    function ecdouble(uint256[3] memory _p) private pure returns(uint256[3] memory R) {\n\n        if (_p[1] == 0) {\n            //return point at infinity\n            return [uint256(1), 1, 0];\n        }\n\n        uint256 z2 = mulmod(_p[2], _p[2], P);\n        uint256 m = addmod(mulmod(A, mulmod(z2, z2, P), P), mulmod(3, mulmod(_p[0], _p[0], P), P), P);\n        uint256 y2 = mulmod(_p[1], _p[1], P);\n        uint256 s = mulmod(4, mulmod(_p[0], y2, P), P);\n\n        R[0] = addmod(mulmod(m, m, P), P - mulmod(s, 2, P), P);\n        R[2] = mulmod(2, mulmod(_p[1], _p[2], P), P);\t// consider R might alias _p\n        R[1] = addmod(mulmod(m, addmod(s, P - R[0], P), P), P - mulmod(8, mulmod(y2, y2, P), P), P);\n    }*/\n}\n",
  "sourcePath": "/home/paul/applications/ghost-wallet/contracts/p256.sol",
  "compiler": {
    "name": "solc",
    "version": "0.5.2+commit.1df8f40c.Emscripten.clang"
  },
  "schemaVersion": "3.0.0",
  "updatedAt": "2019-02-25T19:51:19.023Z",
  "devdoc": {
    "methods": {}
  },
  "userdoc": {
    "methods": {}
  }
}