{
  "contractName": "registry",
  "abi": [
    {
      "constant": true,
      "inputs": [
        {
          "name": "",
          "type": "bytes32"
        },
        {
          "name": "",
          "type": "uint256"
        }
      ],
      "name": "whoIs",
      "outputs": [
        {
          "name": "",
          "type": "address"
        }
      ],
      "payable": false,
      "stateMutability": "view",
      "type": "function"
    },
    {
      "constant": false,
      "inputs": [
        {
          "name": "username",
          "type": "string"
        },
        {
          "name": "identity",
          "type": "address"
        }
      ],
      "name": "register",
      "outputs": [],
      "payable": false,
      "stateMutability": "nonpayable",
      "type": "function"
    },
    {
      "constant": false,
      "inputs": [
        {
          "name": "username",
          "type": "string"
        },
        {
          "name": "_new",
          "type": "address"
        }
      ],
      "name": "addIdentity",
      "outputs": [],
      "payable": false,
      "stateMutability": "nonpayable",
      "type": "function"
    },
    {
      "constant": true,
      "inputs": [
        {
          "name": "username",
          "type": "string"
        },
        {
          "name": "proposed",
          "type": "address"
        }
      ],
      "name": "isOwner",
      "outputs": [
        {
          "name": "",
          "type": "bool"
        }
      ],
      "payable": false,
      "stateMutability": "view",
      "type": "function"
    }
  ],
  "bytecode": "0x608060405234801561001057600080fd5b5061061f806100206000396000f3fe608060405234801561001057600080fd5b5060043610610068577c010000000000000000000000000000000000000000000000000000000060003504631e59c529811461006d578063bde1eee7146100f5578063c125c74d146101c7578063f0113b4814610213575b600080fd5b6100f36004803603604081101561008357600080fd5b81019060208101813564010000000081111561009e57600080fd5b8201836020820111156100b057600080fd5b803590602001918460018302840111640100000000831117156100d257600080fd5b91935091503573ffffffffffffffffffffffffffffffffffffffff16610299565b005b6101b36004803603604081101561010b57600080fd5b81019060208101813564010000000081111561012657600080fd5b82018360208201111561013857600080fd5b8035906020019184600183028401116401000000008311171561015a57600080fd5b91908080601f0160208091040260200160405190810160405280939291908181526020018383808284376000920191909152509295505050903573ffffffffffffffffffffffffffffffffffffffff1691506103a69050565b604080519115158252519081900360200190f35b6101ea600480360360408110156101dd57600080fd5b5080359060200135610563565b6040805173ffffffffffffffffffffffffffffffffffffffff9092168252519081900360200190f35b6100f36004803603604081101561022957600080fd5b81019060208101813564010000000081111561024457600080fd5b82018360208201111561025657600080fd5b8035906020019184600183028401116401000000008311171561027857600080fd5b91935091503573ffffffffffffffffffffffffffffffffffffffff166105a7565b60008084846040516020018083838082843780830192505050925050506040516020818303038152906040528051906020012081526020019081526020016000208054905060001415156102ec57600080fd5b60008084846040516020018083838082843760408051919093018181037fffffffffffffffffffffffffffffffffffffffffffffffffffffffffffffffe00182528352805160209182012087528681019790975250939093016000908120805460018101825590825294902090930180547fffffffffffffffffffffffff00000000000000000000000000000000000000001673ffffffffffffffffffffffffffffffffffffffff95909516949094179093555050505050565b600080600080856040516020018082805190602001908083835b602083106103fd57805182527fffffffffffffffffffffffffffffffffffffffffffffffffffffffffffffffe090920191602091820191016103c0565b6001836020036101000a03801982511681845116808217855250505050505090500191505060405160208183030381529060405280519060200120815260200190815260200160002080549050905060008090505b81811015610556578373ffffffffffffffffffffffffffffffffffffffff16600080876040516020018082805190602001908083835b602083106104c557805182527fffffffffffffffffffffffffffffffffffffffffffffffffffffffffffffffe09092019160209182019101610488565b6001836020036101000a0380198251168184511680821785525050505050509050019150506040516020818303038152906040528051906020012081526020019081526020016000208281548110151561051b57fe5b60009182526020909120015473ffffffffffffffffffffffffffffffffffffffff16141561054e5760019250505061055d565b600101610452565b5060009150505b92915050565b60006020528160005260406000208181548110151561057e57fe5b60009182526020909120015473ffffffffffffffffffffffffffffffffffffffff169150829050565b6105e883838080601f0160208091040260200160405190810160405280939291908181526020018383808284376000920191909152503392506103a6915050565b15156102ec57600080fdfea165627a7a7230582060c479f37cd2d7cec20b0d21e73bf8b850c9261cbac00fa64e058260ce54f6940029",
  "source": "pragma solidity ^0.5.1;\n\n//@Dev - This contract can be centrally deployed as a backend database to allow a user to figure out which smart contract identity is thiers\n//@Dev - The intended use patern is that when the user regisers with the site they call to reserve thier username and label the identity it is attached too\n//@Dev - Then if they need to register a new computer or make a one time call they can enter thier user name into the site and pull up the list of thier identies to format a call to the correct one\n\ncontract registry {\n  mapping(bytes32 => address[]) public whoIs;\n\n  function register(string calldata username, address identity) external {\n    require(whoIs[keccak256(abi.encodePacked(username))].length == 0);\n    whoIs[keccak256(abi.encodePacked(username))].push(identity);\n  }\n  function addIdentity(string calldata username, address _new) external{\n    require(isOwner(username, msg.sender));\n    whoIs[keccak256(abi.encodePacked(username))].push(_new);\n  }\n  function isOwner(string memory username, address proposed) public view returns(bool) {\n    uint len = whoIs[keccak256(abi.encodePacked(username))].length;\n    for(uint i=0; i < len; i++){\n      if(whoIs[keccak256(abi.encodePacked(username))][i] == proposed){\n        return true;\n      }\n    }\n    return false;\n  }\n}\n",
  "sourcePath": "/home/paul/applications/ghost-wallet/contracts/registry.sol",
  "compiler": {
    "name": "solc",
    "version": "0.5.2+commit.1df8f40c.Emscripten.clang"
  },
  "schemaVersion": "3.0.0",
  "updatedAt": "2019-02-25T19:51:19.027Z",
  "devdoc": {
    "methods": {}
  },
  "userdoc": {
    "methods": {}
  }
}